:020000040800F2
:1020000080070020F93B0008373A0008D73B00085A
:1020100000000000000000000000000000000000C0
:10202000000000000000000000000000E33B00088A
:102030000000000000000000153C0008173C0008EC
:10204000193C00081B3C00081D3C00081F3C000810
:10205000213C0008233C0008253C0008273C0008E0
:10206000293C0008512500082B3C00082D3C0008A5
:102070002F3C0008313C000801250008333C0008D3
:10208000353C00086F390008373C0008393C00082F
:102090003B3C0008392300083D3C00083F3C000859
:1020A000413C0008433C0008453C0008313800082A
:1020B000473C0008493C00084B3C00084D3C0008E8
:1020C0000121C006C00E8140B8480160704710B4BD
:1020D0008207920FD300FF249C40E2438901C9B2DA
:1020E000994003000BD593481B071B0F083B9B0827
:1020F0009B00C01803681A401143016007E0BA480A
:102100009B089B00C01803681A401143016010BC73
:10211000704738B505000C00680000F012FDA41CE3
:1021200021006800401C80B200F00BFD31BD10B5ED
:10213000AE4C21000C310320FFF7EBFF2100091DFD
:102140000420FFF7E6FF210008310520FFF7E1FF3B
:1021500021001C310620FFF7DCFF2100143107208D
:10216000FFF7D7FF210018310820FFF7D2FF210029
:1021700044310920FFF7CDFF210048310A20FFF745
:10218000C8FF21004C310B20FFF7C3FF2100503165
:102190000C20FFF7BEFF210054310D20FFF7B9FFDF
:1021A000210058310E20FFF7B4FF21005C310F20D1
:1021B000FFF7AFFF210060311020FFF7AAFF2100D9
:1021C00064311120FFF7A5FF210068311220FFF7CD
:1021D000A0FF21006C311320FFF79BFF210070311D
:1021E0001420FFF796FF210030311520FFF791FFF3
:1021F00021003C311620FFF78CFF210028311720E9
:10220000FFF787FF210024311820FFF782FF3434C5
:1022100021001920FFF77DFF10BD38B504000D0027
:1022200089B2600000F0ACFC290C6000401C80B258
:1022300000F0A6FC31BD10B56C4CE1680320FFF73F
:10224000ECFF61680420FFF7E8FFA1680520FFF7B5
:10225000E4FFE1690620FFF7E0FF61690720FFF76F
:10226000DCFFA1690820FFF7D8FF616C0920FFF7A8
:10227000D4FFA16C0A20FFF7D0FFE16C0B20FFF721
:10228000CCFF216D0C20FFF7C8FF616D0D20FFF71B
:10229000C4FFA16D0E20FFF7C0FFE16D0F20FFF717
:1022A000BCFF216E1020FFF7B8FF616E1120FFF711
:1022B000B4FFA16E1220FFF7B0FFE16E1320FFF70D
:1022C000ACFF216F1420FFF7A8FF216B1520FFF74B
:1022D000A4FFE16B1620FFF7A0FFA16A1720FFF70C
:1022E0009CFF616A1820FFF798FF616B1920FFF7C8
:1022F00094FF10BD884870478F4870478F487047DB
:1023000080B50121480400F089FD7F488C49018592
:102310002821C162012182890A43828102881143F6
:10232000018003211520FFF7D2FE1520FFF7C8FE1C
:1023300001BD00001CED00E070B574480188744ACE
:102340000A4002800024734D20006870A86C401C75
:10235000A864714EB06AE96888420ADBA868716AAD
:10236000884206DBF06B2969884202DBA86A0028F4
:1023700001D020206870F06B2969884200DA34604F
:10238000A868716A884201DA346006E000F05FFEF6
:10239000002802D002206870AC64306C012803DB96
:1023A000A96C884200D2346070BD000000E100E0FA
:1023B00080B50E4800210160016301645548017039
:1023C00000F0A0FF5F4801884904490C0180FFF735
:1023D00097FF00F00DF802210920FFF778FE092091
:1023E000FFF76EFE01BD000000E400E0E801002000
:1023F0004A488021C90581600168802212060A438B
:10240000026001680029FCD40021C16044490A68C7
:1024100080231B0413430B60012102680A430260FE
:10242000404A4260404A0262404A1160404B536059
:10243000182393603F4BD360434B13615368194398
:102440005160016804220A4302607047F6B5C41760
:10245000CD17060000D576420F0000D57F427801E7
:10246000310001F001F8202807DB402100917001C4
:10247000390000F0F9FF4021081AEDB2002D01D01B
:10248000FF21081AE4B2002C01D07F21081AF119AB
:10249000019A1160C0B2F6BDFEB500231A000EE02D
:1024A00094001D4D2D1906596F6CF61B2D6D6E4352
:1024B000F5112D0EAD192D126E463551521C032A01
:1024C000EEDB18001A00144E07E094006D462D59FB
:1024D0003419E46D65434019521C032AF5DB1A00D8
:1024E00007E095006C4664597519AD6E6C431B1975
:1024F000521C032AF5DB0A001900FFF7A7FFFEBDF7
:1025000000201249088070470044014010440140F7
:10251000FEFF00005C020020E801002008240140CA
:1025200008270140010400003D00010004000240B2
:102530008205000040240140640200209402002033
:102540007FBB0000442C014044030020102C0140BC
:10255000F0B585B0994C9A480068002802D0202038
:10256000207001E002202070CD4801210160416807
:102570000122914341601821816041680A43426011
:10258000C848016804220A430260002002AD0FE03F
:102590004100C54A5218138896899B19168B9B19BE
:1025A000928C9A1853109B0F9A1892106A52401CE2
:1025B0000628EDDBE988612048430A2100F054FF3A
:1025C000298980221201891ACA005118E36CA28855
:1025D000C82A0BDA5E00F318E6689B195E10B60F86
:1025E000F3189B10E364521CA28000E0C91A226D0C
:1025F00000B21018A268801A2065C210120F1018BD
:102600000011A060606D09B24018E168401A606571
:10261000C110090F08180011E060A44A11886889E8
:10262000401A8300181800015289511A00F01CFF4B
:10263000323020612888E06268882063A88860635F
:1026400001A920002C30FFF727FF0600A76A02200F
:102650008743A7623000E178401A3100E170616978
:1026600040B208186061A178491CA170A178C90620
:1026700016D1E169411AA161E061A06B081AA06559
:10268000E16D0818E0654E49096A0902814200DCE3
:102690000800E0654842E16D814200DA0100E16531
:1026A0000025284600904648006B002808D0A16904
:1026B000002905D041438802A16800F0D5FE00E062
:1026C00028463F490968002907D0022946D00DD382
:1026D000042900D182E067D389E07549088A400463
:1026E000400C08822846E065206680E07049002F93
:1026F0000A8A04D180231B0213430B8202E0520496
:10270000520C0A826169E26B891A226E52182266A3
:102710002B4B1B691B03934200DC1A0022665A42B2
:10272000236E934200DA13002366254A92685143D0
:102730001A46234B5B685A43CB111B0E59180912DA
:10274000D3121B0D9A18121389180818009035001F
:10275000012801DB403D4AE0403548E05449002F64
:102760000A8A04D180231B0213430B8202E0520425
:10277000520C0A82A16D124A92695143E26D104BCC
:102780005B695A43CB111B0E59180912D3111B0E4A
:102790009A1812128918081800903500012801DBD8
:1027A000403D24E0403522E04149002F088A09D10C
:1027B0008022120202430A8207E000BF5C0200206E
:1027C000E80100204004400C08823500206C009095
:1027D000012801DB40350AE0403D08E03449088A21
:1027E0008022120202430A82656C206C00900098DD
:1027F00000F094FE0700606EC10008180A2100F086
:1028000033FE0600E0680A2100F02EFE01003000D1
:10281000401860662749096800290AD02549896A55
:10282000814206DA002023490860A06A082101439A
:10283000A1622148874200DB471E1E48C06A00286B
:1028400002D0B84200DA0700EDB200BF1CA0290098
:102850005531C9B2425C7A4329005539C9B2435C4B
:102860007B431349405D7843000A0860180A4860BA
:10287000100A8860A078C006C00E10490222237892
:10288000984201DB0A6000E00A826278904202DB33
:102890000120086001E00120088205B0F0BD00BF02
:1028A000040002400824014044030020B8F7FF1F41
:1028B000342C0140E80100200104000018140048F5
:1028C0000000000000000000000000000000000008
:1028D00000000000000000000000000000000000F8
:1028E00000000000000000000000000000000000E8
:1028F00000000000000000000000000000000000D8
:1029000000000000000000000000000000000000C7
:10291000000000000000040A10161D23292F353B7B
:1029200041474D53595F656A70767B81868B9095E0
:102930009A9FA4A9AEB2B6BBBFC3C7CBCED2D5D9DE
:10294000DCDFE2E5E7EAECEFF1F3F4F6F7F9FAFBA6
:10295000FCFDFDFEFEFEFEFEFEFDFCFCFBFAF8F7B4
:10296000F5F4F2F0EEECE9E7E4E1DEDDE0E3E6E8E1
:10297000EBEDEFF1F3F5F6F8F9FAFBFCFDFDFEFEE9
:10298000FEFEFEFDFDFCFBFAF9F8F6F5F3F1EFEDC6
:10299000EBE8E6E3E0DDDAD7D3D0CCC8C4C0BCB8FE
:1029A000B4AFAAA6A19C97928D88827D78726C673D
:1029B000615B554F49433D37312B251F18120C06DB
:1029C000FEB500273C000020C04369460881AB25C6
:1029D0003E0000F0A7FD39006846062302E05200E1
:1029E0008352491C89B20A00042AF8DB390006E048
:1029F0008802AD4BC35A684652008352491C89B2C3
:102A00000A00042AF4DB38006A4601E00500401C95
:102A100080B20100042906DA4900515A0029F6D192
:102A2000AB2DF3D00126002E12D1AB2D10D13800E2
:102A300001E00500401C80B20100042908DA6A4662
:102A40004900515A994A9142F4D1AB2DF1D0012657
:102A5000002E01D1AB2D0ED1002E01D0050000E0DB
:102A60003D00280000F0A2F80100042902D100F086
:102A700062FD0420FEBD2800401C2900491C4210B4
:102A8000920F1018801080000E1AB6B268466900C6
:102A9000415A002913D0854A9142E8D1824C3946E7
:102AA000A802001900F068FD01000429E2D1B0027B
:102AB000001900F046FD01000429DBD1D7E77100C1
:102AC000405A7A4988429D4F0CD09D498842CED1C8
:102AD000B0027549401800F034FD01000429C6D049
:102AE000FEBD641CA4B22000402819DAB102954A48
:102AF000895AA14203D1210009B26A461181029983
:102B000009B28842EDD0390000F01BF80128E8D066
:102B10003988200000F0A2F80428E2D0C0B2FEBD3F
:102B2000614CA802001900F00CFD01000429A1D19C
:102B30000021B002001900F01FFD0100042999D105
:102B400095E770B505000C000126002000F048F85C
:102B5000AB2801D1AB2070BD8102534808187A4AD6
:102B6000891800E0091F0200921C8A4206D20A88D6
:102B7000AA42F7D1891E088820800026300070BD47
:102B800070B505000C0000F0CDFC2100280000F01D
:102B900065F80600802E04D12100280000F088F896
:102BA000060000F0C8FC3000C0B270BD70B5060071
:102BB0000420002401E0641CA4B2042C0FDAA0025B
:102BC00039494518280000F0BCFC042807D1B4425C
:102BD000F1D10021280000F0CFFC0428EBD070BD1B
:102BE0003CB401000022100006E083022E4C1B5B67
:102BF0006C4645006353401C0428F6DB00291CD0BA
:102C0000012928D110006A4601E0401C80B2042846
:102C10001FDA4100515A0029F7D10100491C4B101D
:102C20009B0F5B189B109B00C91A89B24B00D25AAC
:102C30001E4B9A4210D108000EE0100001E0401C2B
:102C400080B2042805DA69464200895A0029F6D183
:102C500002E0AB2000E0104636BC704770B50400BF
:102C60000E000120FFF7BCFFAB2801D1AB2070BDE7
:102C700080020D494518344940180022D24300E033
:102C80002D1D85420ED229689142F9D131002800CC
:102C900000F072FC042806D12100AD1C280000F0D1
:102CA0006BFC70BD802070BD00700008EEEE00006F
:102CB000F8B507000E0000242046FFF791FFAB286F
:102CC0001CD00200521C214953109B0F9B189B10D3
:102CD0009B00D21A920255188002401800901C499D
:102CE000280000F049FC0100042926D131003800F9
:102CF000FFF7B4FF042820D1104E02E0AB20F2BD54
:102D0000641CA4B2402C0EDABC42F9D03100200081
:102D1000FFF717FF0128F3D031882000FFF79EFF4F
:102D20000428EDD0F2BD009800F00BFC010004294E
:102D300003D10021280000F01FFCF2BD7803002021
:102D4000FFFF000006700008FE7300080070000816
:102D5000EEEE000027490028086803D00122024354
:102D60000A607047012290430860704710B4224AFD
:102D70001368224C1C40146013680143194311600E
:102D800010BC70471B490028086804D080225204F8
:102D900002430A607047204A02400A6070471649A1
:102DA0000A6803239A431043086070471248016879
:102DB0000C200840704710490A68F0239A431043DA
:102DC000086070470C490A68234B13401843086099
:102DD00070472249020F012A0A6803D103239A434C
:102DE0000A6002E01E4B13400B600A681043086043
:102DF000704700000010024004100240FF7FC2FF35
:102E0000184A0029116802D00843106070478143B6
:102E10001160704700000000FFFFFFFE124A00290A
:102E2000116802D0084310607047814311607047F9
:102E30000E4A0029116802D0084310607047814390
:102E4000116070470A4A0029116802D008431060D7
:102E50007047814311607047FFF8FFFF3010024058
:102E6000FFFFFCFF14100240181002401C1002402B
:102E70000C10024030B402007A48002300E05B1CD2
:102E8000DBB28B4210D2D45C6040082401E0280001
:102E9000641EE4B2002CF2D00500ADB26D08C0078C
:102EA000F5D571486840F3E780B230BC704780B513
:102EB0006E484278C06B01021143012000F0C1FB53
:102EC00001BD0000F8B506000127684C38006070AD
:102ED000FFF710FA6063FFF70FFA2063FFF70EFAAF
:102EE000A063380060700A25E563002E0AD16946A8
:102EF00000F08CFB002805D0009860700098000A54
:102F0000C0B2E063E06B0D2804D26078002801D0E5
:102F1000F12801DBE5636770E06B0D2800D3E56302
:102F2000206B60600100091DA16001000831E160B3
:102F300001000C31216101000C316161010010318F
:102F4000A16101001831E16101001C312162010021
:102F50002431616201002831A16201002C31E1625B
:102F6000616B434A1160A36B1D000C3555601D0059
:102F700008359560D3601D002D1D15611B1D536123
:102F80000B00303393610B003433D3610B003833C3
:102F900013620B00243353620B00283393620B003F
:102FA0003C33D3620B00143313630B0018335363A9
:102FB0000B001C3393630B001B1DD3630B00083302
:102FC00013640B000C3353640B00403393640B0009
:102FD0001033D3640B00203313650B002C3353657F
:102FE00000239365D365136653669366D3661367B0
:102FF0002030506708004430906708004830D067A0
:1030000008004C308023D0508432080050301060CB
:1030100008005430506008005830906008005C3060
:10302000D060080060301061080064305061080012
:103030006830906108006C30D0617031116200BF5F
:10304000A2A0E16B8900405800F057FBF1BD9B48FE
:103050000178002903D00021017001207047002071
:1030600070470000FFFF000001A00000C402002024
:10307000C0000020082900D27047F1B582B0007866
:103080008E4A5278904202D0002800D0AEE00298DA
:10309000807807020298C0780743029800790602F8
:1030A00002984079064302984018801E02784078C2
:1030B000040214430025891EC9B20298FFF7DAFE04
:1030C000A04200D092E0012420007C4908700298C0
:1030D0004078032806D0062800D188E0102800D1C7
:1030E000B9E0F7BD380040380C283FD20C2E3DDA4D
:1030F000734D084640782870032068703000400007
:10310000A870002008E000214200AA180B001371EB
:10311000090AD170401CC0B2B04214DA67493A18AB
:1031200092008918FF22D24389184A68002AEAD0FF
:10313000002805D00968914202D11168090CE3E723
:10314000116889B2E0E77600B6B23100C91CC9B295
:103150002800FFF78FFE0400A8192100C17021127A
:1031600001713100491D280000F030FB2B2F3DDAA2
:103170002B2E3BDA524D514840782870032068705E
:1031800030004000A870002008E000214200AA188A
:103190000B001371090AD170401CC0B2B04212DAA0
:1031A00048493A18920089180A68002AEDD0002888
:1031B00006D0091F0968914202D11168090CE5E7A0
:1031C000116889B2E2E77600B6B23100C91CC9B213
:1031D0002800FFF74FFE0400A8192100C17021123A
:1031E0000171761D3100280000F0F0FAF7BD364875
:1031F000874203D1864201D100F0BAFB2A2F08DAB8
:103200003049B8000858002802D0310009B20160E6
:103210002500812F03D13000284948702500802FD8
:1032200002D12648C6632500822F04D1FFF73FFE56
:10323000FFF701F82500002DD8D00020204D03E035
:103240000299095C2954401C0828F9DB0821280050
:1032500000F0BCFAF7BD2B2FC8DA2B2EC6DA2846B1
:103260000090174D15E00299095C2954401C06286E
:10327000F9DB06212800FFF7FDFD0400A8712012EC
:10328000E8710821280000F0A1FA0098401CC0B2A3
:1032900000900098B042A9DA0A493818800008580E
:1032A000002809D00299009A52008918CA7912029E
:1032B000097A0A4312B202600020D8E7C402002053
:1032C00004030020C0000020FF0300006E00000087
:1032D000960000002C010000B0040000600900000E
:1032E000C012000080250000004B00000096000086
:1032F00000E1000000C20100008403000008070094
:1033000000100E0010B50121C802FFF787FD002153
:1033100040480A00028502843F4AC262A02202801D
:103320006822038B13430383038C05241C4304840A
:103330004163038B14021C430483038C50241C43FD
:1033400004848163838B1A438283028CA023DB0075
:1033500013430384C163818B304A0A438283010D86
:103360000164702181802E490A88082313430B8051
:10337000018801220A4302809020C0050168294A81
:103380000A4002608021890302680A430260426A9F
:103390000B0B13434362244A1368244C1C401460F3
:1033A00013688C011C431460536A1943516201680D
:1033B0001F4B0B400360016880231B030B4303601A
:1033C000416A20230B43436211681A4B0B40136080
:1033D0008021890513680B431360536A0C091C4351
:1033E00054620368144C1C40046003680C0B1C43BB
:1033F0000460436A02241C43446210688000800811
:103400001060106880231B0603431360506A014359
:10341000516210BD002C0140330400000860000020
:10342000442C0140FFFFCFFF00040048FFFFFFF3E3
:10343000FFFFF3FFFFFFFFCFFFFFFCFFF446002875
:1034400004D4494200F013F840426047404200294A
:1034500005D45FD000F00BF8404249426047494232
:1034600000F005F84942604703460B43E6D40022CA
:10347000030A8B420BD203098B4219D243088B42B9
:103480002ED2411A00D20146524110467047FF2207
:1034900009023FD012068B4205D3121209028B4259
:1034A00001D31212090203098B4219D300E0090A61
:1034B000C3098B4201D3CB01C01A524183098B420D
:1034C00001D38B01C01A524143098B4201D34B01F6
:1034D000C01A524103098B4201D30B01C01A524159
:1034E000C3088B4201D3CB00C01A524183088B42E0
:1034F00001D38B00C01A524143088B4201D34B00C9
:10350000C01A5241884200D3401A5241CFD20146DC
:103510001046704708B500F08DFA08BD002800D5A8
:10352000404270472048C168090603D51F49016021
:103530001F49016070471F48016880220A430260EA
:10354000704770B50400B0252D03280000F04EF838
:10355000042810D1174E3068022101433160746095
:103560003068402101433160280000F03FF83168A5
:1035700002229143316070BDF8B507000C00B02500
:103580002D03280000F032F804280CD10A4E3068D0
:103590000121014331603C80280000F027F83168A8
:1035A000012291433160F2BD0420024023016745AE
:1035B000AB89EFCD102002401020024010B404214E
:1035C00008000122084B1C68144001D0100008E0DC
:1035D0001A68D20601D5022003E01A68114000D013
:1035E000032010BC704700000C20024010B50400FE
:1035F000FFF7E4FF02E0FFF7E1FF641E012801D1BD
:10360000002CF8D1002C00D1052010BD30B40023CF
:103610001A00224D03E0A4002C5912195B1C9BB226
:103620001C00062CF7DB1E4B1B68D443A34205D1BC
:103630002A46800010580860012000E0002030BCBD
:10364000704770B505000C00FFF76CFF134E30009B
:10365000FFF777FFAD00210089B2A819FFF78CFFB3
:10366000210CB01C2818FFF787FF0020010033460B
:1036700003E092009A588918401C80B20200062A82
:10368000F7DBCC43210089B20548FFF775FF210C19
:103690000448FFF771FF002070BD0000001C000807
:1036A000181C00081A1C00080121C006C00E814029
:1036B0006B480160704710B48207920FD300FF245B
:1036C0009C40E2438901C9B2994003000BD565488B
:1036D0001B071B0F083B9B089B00C01803681A4080
:1036E0001143016007E060489B089B00C018036815
:1036F0001A401143016010BC7047F8B505008024E2
:10370000E40101212000FFF789FB01210846FFF7B2
:1037100077FB5648FFF75DFB01218804FFF770FB3C
:1037200053480168534A0A400260016862080A432C
:103730000260016A016201684F4A0A400260660045
:10374000016831430160016A01624C4F4C48290015
:10375000FFF78DFEB88100203860B8607860786827
:1037600006437E60B868C0210143B9603868210310
:103770000143396078686102014379600F20786104
:103780009020C00501680C22914301600168082265
:103790000A430260016A10220A43026238688421E7
:1037A000490401433960B8680443BC6038680D219E
:1037B000014339608021334800F02EF81B20FFF7C9
:1037C00073FF05211B20FFF776FFF1BD38B505001B
:1037D0000C0000F017F80028FBD02B4801684022AD
:1037E0000A4302602948016820220A4302609021AE
:1037F0008161C461456226490162816901220A43EF
:10380000826131BD2348C169002901D1012070477F
:1038100000682021084070471F4A802313605160D0
:10382000D0601E489060106801210143116070470C
:1038300010B51B4C206800050AD51A48016880297C
:1038400006D080210068091A89B20E48FFF712FCE1
:103850001548606080210B48FFF7DEFF10BD0000B7
:1038600000E100E01CED00E000E400E001000010D9
:1038700000040048FFCFFFFFFF3FFFFF003801407B
:10388000006CDC0268010020203801400400024086
:103890002838014000000240300002402438014036
:1038A0001C38014034000240FFFF0000BFF34F8F7F
:1038B000534854490860BFF34F8FFEE780B501209D
:1038C000FFF748FAA02189030020FFF74FFA0120F3
:1038D000FFF758FA4C4800688001FBD50220FFF73B
:1038E0005EFAFFF763FA0828FBD10020FFF763FABE
:1038F0000020FFF767FA01210807FFF799FA012175
:103900008C20C003FFF77CFA01210846FFF778FA04
:1039100001213E48FFF782FA0121C802FFF788FA29
:1039200001210803FFF77AFA01BD80B5012148049F
:10393000FFF774FA3648374901853221C1620188A0
:1039400001220A430280416AC26A521E9142FAD39E
:10395000002141623049028A0A40028202881140F5
:10396000018001BD704702202C49086070477047F4
:1039700080B572B62A482B490860002000F05CF838
:1039800000210120FFF75EFAFFF790FF01BD2648F6
:1039900001680C2291430160016804220A4302601D
:1039A00081680C220A43826001680322914301600E
:1039B000016801220A430260816803220A4382608F
:1039C00001681A4A0A40026001688022D2010A4353
:1039D00002608168C02212020A4382600168144AB0
:1039E0000A4002600168802252010A430260816835
:1039F000C02292010A4382608021816170470000E9
:103A00000400FA050CED00E0001002400102000085
:103A1000004401407FBB0000FEFF00007403002053
:103A2000FFFF000080E100E000140048FF3FFFFFBF
:103A3000FFCFFFFF7047FEE703490A6803239A435D
:103A400010430860704700000000014080B500206E
:103A500007E08100334A8958802292058300D150C3
:103A6000401C3028F5D301210846FFF7EBF903206D
:103A7000FFF7E2FF01BDF8B5002080F31088FFF7E3
:103A80001DFFFEF79DFFFFF782FF62B6FFF76AFF9B
:103A9000FFF74BFF244C2068032188432060A06877
:103AA0000143A1600C25ED43206828402060A068F8
:103AB0000C210143A160E06803218843E0600127F5
:103AC000E0683843E060E0682840E0600426E06891
:103AD0003043E060FFF729FF208A0100C907C90FC2
:103AE00038464840FFF7EEF9206805402560206819
:103AF00006432660A0680C210143A16020680321D1
:103B000088432060206807432760A0680143A160C4
:103B1000FEF74EFCFEF70BFBFFF725FF00F006F863
:103B2000FCE700000020000800140048024801499A
:103B30000860704700300040AAAA000070B401215C
:103B4000002313E00468001D0C4202D04D466D1E98
:103B500064192360241D121F042AFAD22500960737
:103B600001D52380AD1C0A4000D02B700268001DD7
:103B7000002AE7D170BC704710B507497944183165
:103B8000064C7C44163404E0081D0A6889188847EE
:103B90000100A142F8D110BD08000000140000008F
:103BA0009DFFFFFFBC020000C000002000000000DD
:103BB00000F00BF8002801D0FFF7DEFF0020C04620
:103BC000C046FFF758FF00F002F80120704780B5AB
:103BD00000F002F801BDFEE70746384600F002F8A3
:103BE000FBE7FEE780B5C046C046024A1100182038
:103BF000ABBEFBE7260002000148804701480047B2
:103C00004D3A0008093C0008C046C046C046C046C0
:103C1000FFF7CEFFFEE7FEE7FEE7FEE7FEE7FEE783
:103C2000FEE7FEE7FEE7FEE7FEE7FEE7FEE7FEE76C
:103C3000FEE7FEE7FEE7FEE7FEE7FEE7FEE7FEE75C
:0E3C4000FEE7FEE7FEE7FEE7FEE7FEE7FEE733
:0400000508003C09AA
:00000001FF
