:020000040800F2
:1020000088070020513C00088F3A00082F3C000848
:1020100000000000000000000000000000000000C0
:102020000000000000000000000000003B3C000831
:1020300000000000000000006D3C00086F3C00083C
:10204000713C0008733C0008753C0008773C0008B0
:10205000793C00087B3C00087D3C00087F3C000880
:10206000813C000855250008833C0008853C000899
:10207000873C0008893C0008052500088B3C0008C7
:102080008D3C0008C73900088F3C0008913C0008CF
:10209000933C00083D230008953C0008973C00084D
:1020A000993C00089B3C00089D3C000889380008CA
:1020B0009F3C0008A13C0008A33C0008A53C000888
:1020C0000121C006C00E8140B9480160704710B4BC
:1020D0008207920FD300FF249C40E2438901C9B2DA
:1020E000994003000BD594481B071B0F083B9B0826
:1020F0009B00C01803681A401143016007E0BB4809
:102100009B089B00C01803681A401143016010BC73
:10211000704738B505000C00680000F03CFDA41CB9
:1021200021006800401C80B200F035FD31BD10B5C3
:10213000AF4C21000C310320FFF7EBFF2100091DFC
:102140000420FFF7E6FF210008310520FFF7E1FF3B
:10215000210020310620FFF7DCFF21001831072085
:10216000FFF7D7FF21001C310820FFF7D2FF210025
:1021700048310920FFF7CDFF21004C310A20FFF73D
:10218000C8FF210050310B20FFF7C3FF210054315D
:102190000C20FFF7BEFF210058310D20FFF7B9FFDB
:1021A00021005C310E20FFF7B4FF210060310F20C9
:1021B000FFF7AFFF210064311020FFF7AAFF2100D5
:1021C00068311120FFF7A5FF21006C311220FFF7C5
:1021D000A0FF210070311320FFF79BFF2100743115
:1021E0001420FFF796FF210034311520FFF791FFEF
:1021F000210040311620FFF78CFF21002C311720E1
:10220000FFF787FF210028311820FFF782FF210008
:1022100038311920FFF77DFF0020606110BD38B50F
:1022200004000D0089B2600000F0D4FC290C6000AD
:10223000401C80B200F0CEFC31BD10B56C4CE168A2
:102240000320FFF7ECFF61680420FFF7E8FFA168B7
:102250000520FFF7E4FF216A0620FFF7E0FFA169F0
:102260000720FFF7DCFFE1690820FFF7D8FFA16C2A
:102270000920FFF7D4FFE16C0A20FFF7D0FF216DA2
:102280000B20FFF7CCFF616D0C20FFF7C8FFA16D9D
:102290000D20FFF7C4FFE16D0E20FFF7C0FF216E98
:1022A0000F20FFF7BCFF616E1020FFF7B8FFA16E93
:1022B0001120FFF7B4FFE16E1220FFF7B0FF216F8E
:1022C0001320FFF7ACFF616F1420FFF7A8FF616BCD
:1022D0001520FFF7A4FF216C1620FFF7A0FFE16A8D
:1022E0001720FFF79CFFA16A1820FFF798FFA16B4A
:1022F0001920FFF794FF10BD884870478F4870473A
:102300008F48704780B50121480400F0B1FD7F4837
:102310008C4901852821C162012182890A43828179
:1023200002881143018003211520FFF7D0FE1520FC
:10233000FFF7C6FE01BD00001CED00E070B574485B
:102340000188744A0A4002800024734D200068709E
:10235000A86C401CA864714EF06AE96888420ADBE8
:10236000A868B16A884206DB306C2969884202DBC2
:10237000A86A002801D020206870306C2969884242
:1023800000DA3460A868B16A884201DA346006E095
:1023900000F089FE002802D002206870AC64706CE6
:1023A000012803DBA96C884200D2346070BD0000B4
:1023B00000E100E080B50E48002101604163416406
:1023C0005548017000F0CAFF5F4801884904490C74
:1023D0000180FFF797FF00F00DF802210920FFF7B9
:1023E00076FE0920FFF76CFE01BD000000E400E06E
:1023F000E80100204A488021C905816001688022E7
:1024000012060A43026001680029FCD40021C16061
:1024100044490A6880231B0413430B6001210268AE
:102420000A430260404A4260404A0262404A1160E8
:10243000404B5360182393603F4BD360434B136171
:10244000536819435160016804220A4302607047CF
:10245000F6B5C417CD17060000D576420F0000D59B
:102460007F427801310001F02BF8202807DB402162
:1024700000917001390001F023F84021081AEDB2F3
:10248000002D01D0FF21081AE4B2002C01D07F21D9
:10249000081AF119019A1160C0B2F6BDFEB5002309
:1024A0001A000EE094001D4D2D190659AF6CF61B55
:1024B0006D6D6E43F5112D0EAD192D126E46355111
:1024C000521C032AEEDB18001A00144E07E0940099
:1024D0006D462D593419246E65434019521C032A48
:1024E000F5DB1A0007E095006C4664597519ED6E2E
:1024F0006C431B19521C032AF5DB0A001900FFF775
:10250000A7FFFEBD0020124908807047004401402B
:1025100010440140FEFF000060020020E80100209E
:102520000824014008270140010400003D0001008B
:10253000040002408205000040240140680200209F
:10254000980200207FBB0000442C01404C03002077
:10255000102C0140F0B587B0AD4CAE4800680028A3
:1025600002D02020207001E002202070AA48012122
:1025700001604168012291434160182181604168F6
:102580000A434260A548016804220A430260002011
:1025900004AD0FE04100A24A5218138896899B1996
:1025A000168B9B19928C9A1853109B0F9A189210A5
:1025B0006A52401C0628EDDBE988612048430A2165
:1025C00000F07EFF298980221201891ACA00511861
:1025D000E36CA288C82A0BDA5E00F318E6689B1940
:1025E0005E10B60FF3189B10E364521CA28000E04B
:1025F000C91A226D00B21018A268801A2065C21094
:10260000120F10180011A060606D09B24018E16847
:10261000401A6065C110090F08180011E060B84A3F
:1026200011886889401A8300181800015289511ACC
:1026300000F046FF323020612888E062688820631D
:10264000A888606303A920002C30FFF727FF06004D
:10265000A76A02208743A7623000E178401A310060
:10266000E170616940B208186061A178491CA170ED
:10267000A178C906C90E6A46117219D1E169411AD9
:10268000A161E061A06B081AA065E16D0818E06522
:102690006049496A090201290ADB814200DC08001D
:1026A000E06548420100E06D884200DA0800E0651C
:1026B0000025284600905748406B002809D0A169A2
:1026C000002906D041438802A16800F0F9FE01907C
:1026D00001E0284601904F480068002808D00228F1
:1026E00065D011D3042800D1A8E000D286E0AEE086
:1026F0008448018A4904490C01822846E065206625
:10270000444840696066A2E07E48002F018A04D1F7
:10271000802212020A43028202E04904490C01822B
:102720006069E16B401A216E09182166394A126905
:1027300012038A4200DC110021665142226E8A4255
:1027400000DA0A0022663349896848431146314A53
:1027500052685143C211120E10180012CA12120D03
:10276000511809134518606E002806D0A84200DAF7
:10277000050041428D4200DA0D006846007A0028CB
:102780000BD124484769002F05D0280000F0F2FE45
:10279000C019606601E0002060660198281800906A
:1027A0003500012801DB403D51E040354FE0554800
:1027B000002F018A04D1802212020A43028202E021
:1027C0004904490C0182A06D1249C9694843E16D71
:1027D000104A92695143C211120E10180012CA1108
:1027E000120E511809124018019940180090350036
:1027F000012801DB403D2AE0403528E04148002F18
:10280000018A0FD1802212020A4302820DE000BF2A
:1028100060020020E801002004000240082401407A
:102820004C0300204904490C01823500206C0090C3
:10283000012801DB40350AE0403D08E03148018ACB
:10284000802212020A430282656C206C009000987C
:1028500000F090FE0700A06EC10008180A2100F0E9
:102860002FFE0600E0680A2100F02AFE0100300079
:102870004018A0662449096800290AD02249C96A7B
:10288000814206DA002020490860A06A082101433D
:10289000A1621E48874200DB471E1B48006B0028D0
:1028A00002D0B84200DA0700EDB200BF19A128003B
:1028B0005530C0B20A5C7A4328005538C0B20B5C70
:1028C0007B431048495D7943090A0160190A416058
:1028D000110A8160A078C006C00E0D49022223783B
:1028E000984201DB0A6000E00A826278904202DBD3
:1028F0000120086001E00120088207B0F0BD00005F
:10290000B8F7FF1F342C0140E8010020010400004B
:102910001814004800000000000000000000000043
:1029200000000000000000000000000000000000A7
:102930000000000000000000000000000000000097
:102940000000000000000000000000000000000087
:102950000000000000000000000000000000000077
:1029600000000000000000000000040A10161D23F3
:10297000292F353B41474D53595F656A70767B81FE
:10298000868B90959A9FA4A9AEB2B6BBBFC3C7CBA6
:10299000CED2D5D9DCDFE2E5E7EAECEFF1F3F4F6ED
:1029A000F7F9FAFBFCFDFDFEFEFEFEFEFEFDFCFC63
:1029B000FBFAF8F7F5F4F2F0EEECE9E7E4E1DEDD3E
:1029C000E0E3E6E8EBEDEFF1F3F5F6F8F9FAFBFCFE
:1029D000FDFDFEFEFEFEFEFDFDFCFBFAF9F8F6F540
:1029E000F3F1EFEDEBE8E6E3E0DDDAD7D3D0CCC8E6
:1029F000C4C0BCB8B4AFAAA6A19C97928D88827DB2
:102A000078726C67615B554F49433D37312B251F09
:102A100018120C06FEB500273C000020C043694692
:102A20000881AB253E0000F0A9FD39006846062369
:102A300002E052008352491C89B20A00042AF8DBE2
:102A4000390006E08802AD4BC35A684652008352F3
:102A5000491C89B20A00042AF4DB38006A4601E006
:102A60000500401C80B20100042906DA4900515AD1
:102A70000029F6D1AB2DF3D00126002E12D1AB2DBB
:102A800010D1380001E00500401C80B2010004298B
:102A900008DA6A464900515A994A9142F4D1AB2D5D
:102AA000F1D00126002E01D1AB2D0ED1002E01D088
:102AB000050000E03D00280000F0A2F80100042914
:102AC00002D100F064FD0420FEBD2800401C290056
:102AD000491C4210920F1018801080000E1AB6B2D6
:102AE00068466900415A002913D0854A9142E8D1CD
:102AF000824C3946A802001900F06AFD0100042941
:102B0000E2D1B002001900F048FD01000429DBD138
:102B1000D7E77100405A7A4988429D4F0CD09D49B1
:102B20008842CED1B0027549401800F036FD010050
:102B30000429C6D0FEBD641CA4B22000402819DAC6
:102B4000B102954A895AA14203D1210009B26A46CD
:102B50001181029909B28842EDD0390000F01BF8CA
:102B60000128E8D03988200000F0A2F80428E2D03B
:102B7000C0B2FEBD614CA802001900F00EFD0100BC
:102B80000429A1D10021B002001900F021FD0100AB
:102B9000042999D195E770B505000C0001260020A5
:102BA00000F048F8AB2801D1AB2070BD810253483A
:102BB00008187A4A891800E0091F0200921C8A420C
:102BC00006D20A88AA42F7D1891E088820800026EA
:102BD000300070BD70B505000C0000F0CFFC210086
:102BE000280000F065F80600802E04D1210028009E
:102BF00000F088F8060000F0CAFC3000C0B270BDDA
:102C000070B506000420002401E0641CA4B2042C6A
:102C10000FDAA00239494518280000F0BEFC04284C
:102C200007D1B442F1D10021280000F0D1FC0428E2
:102C3000EBD070BD3CB401000022100006E083021E
:102C40002E4C1B5B6C4645006353401C0428F6DB8E
:102C500000291CD0012928D110006A4601E0401C3F
:102C600080B204281FDA4100515A0029F7D101002F
:102C7000491C4B109B0F5B189B109B00C91A89B213
:102C80004B00D25A1E4B9A4210D108000EE01000A1
:102C900001E0401C80B2042805DA69464200895AE6
:102CA0000029F6D102E0AB2000E0104636BC7047A8
:102CB00070B504000E000120FFF7BCFFAB2801D166
:102CC000AB2070BD80020D494518344940180022E0
:102CD000D24300E02D1D85420ED229689142F9D1E0
:102CE0003100280000F074FC042806D12100AD1C3E
:102CF000280000F06DFC70BD802070BD00700008E1
:102D0000EEEE0000F8B507000E0000242046FFF7A5
:102D100091FFAB281CD00200521C214953109B0F7D
:102D20009B189B109B00D21A9202551880024018E3
:102D300000901C49280000F04BFC0100042926D11A
:102D400031003800FFF7B4FF042820D1104E02E014
:102D5000AB20F2BD641CA4B2402C0EDABC42F9D008
:102D600031002000FFF717FF0128F3D03188200041
:102D7000FFF79EFF0428EDD0F2BD009800F00DFC97
:102D80000100042903D10021280000F021FCF2BD3C
:102D900080030020FFFF000006700008FE7300089B
:102DA00000700008EEEE000027490028086803D0F4
:102DB000012202430A607047012290430860704775
:102DC00010B4224A1368224C1C401460136801435B
:102DD0001943116010BC70471B490028086804D0D3
:102DE0008022520402430A607047204A02400A606F
:102DF000704716490A6803239A43104308607047D6
:102E0000124801680C200840704710490A68F023F6
:102E10009A431043086070470C490A68234B1340DB
:102E20001843086070472249020F012A0A6803D13B
:102E300003239A430A6002E01E4B13400B600A68AA
:102E40001043086070470000001002400410024068
:102E5000FF7FC2FF184A0029116802D008431060A2
:102E6000704781431160704700000000FFFFFFFEC4
:102E7000124A0029116802D008431060704781434C
:102E8000116070470E4A0029116802D00843106093
:102E900070478143116070470A4A0029116802D0C7
:102EA000084310607047814311607047FFF8FFFFCF
:102EB00030100240FFFFFCFF1410024018100240C7
:102EC0001C1002400C10024030B402007B4800236A
:102ED00000E05B1CDBB28B4210D2D45C6040082463
:102EE00001E02800641EE4B2002CF2D00500ADB26F
:102EF0006D08C007F5D572486840F3E780B230BC72
:102F0000704780B56F484278C06B010211430120C1
:102F100000F0C3FB01BD0000F8B506000127694CB5
:102F200038006070FFF7E8F96063FFF7E7F92063A6
:102F3000FFF7E6F9A063380060700A25E563002E0C
:102F40000AD1694600F08EFB002805D00098607019
:102F50000098000AC0B2E063E06B0D2804D26078EC
:102F6000002801D0F12801DBE5636770E06B0D28D4
:102F700000D3E563206B60600100091DA1600100C2
:102F80000831E16001000C31216101000C31616107
:102F900001001031A16101001831E16101001C3113
:102FA000216201002431616201002831A162010027
:102FB0002C31E162616B444A1160A36B1D000C353A
:102FC00055601D0008359560D3601D002D1D1561ED
:102FD0001B1D53610B00343393610B003833D361F5
:102FE0000B003C3313620B00283353620B002C336D
:102FF00093620B004033D3620B00183313630B0052
:103000001C3353630B00203393630B001B1DD363EE
:103010000B00083313640B000C3353640B00443370
:1030200093640B001033D3640B00243313650B003F
:10303000303353650B00143393650023D365136657
:1030400053669366D3661367203050670800483094
:10305000906708004C30D067080050308023D05073
:103060008432080054301060080058305060080066
:103070005C30906008006030D060080064301061FF
:1030800008006830506108006C30906108007030B2
:10309000D0617431116200BFA2A0E16B8900405879
:1030A00000F057FBF1BD9B480178002903D00021B7
:1030B000017001207047002070470000FFFF0000F2
:1030C00001A00000CC020020C0000020082900D28E
:1030D0007047F1B582B000788E4A5278904202D0A3
:1030E000002800D0AEE00298807807020298C078ED
:1030F0000743029800790602029840790643029835
:103100004018801E02784078040214430025891E6E
:10311000C9B20298FFF7D8FEA04200D092E0012485
:1031200020007C49087002984078032806D00628C1
:1031300000D188E0102800D1B9E0F7BD3800403850
:103140000C283FD20C2E3DDA734D0846407828708B
:103150000320687030004000A870002008E00021C3
:103160004200AA180B001371090AD170401CC0B2AA
:10317000B04214DA67493A1892008918FF22D24304
:1031800089184A68002AEAD0002805D009689142C7
:1031900002D11168090CE3E7116889B2E0E7760013
:1031A000B6B23100C91CC9B22800FFF78DFE040079
:1031B000A8192100C170211201713100491D280098
:1031C00000F030FB2B2F3DDA2B2E3BDA524D5148CD
:1031D000407828700320687030004000A8700020FC
:1031E00008E000214200AA180B001371090AD170EF
:1031F000401CC0B2B04212DA48493A18920089180D
:103200000A68002AEDD0002806D0091F09689142FB
:1032100002D11168090CE5E7116889B2E2E776008E
:10322000B6B23100C91CC9B22800FFF74DFE040038
:10323000A8192100C17021120171761D31002800EA
:1032400000F0F0FAF7BD3648874203D1864201D13B
:1032500000F0BAFB2A2F08DA3049B80008580028D5
:1032600002D0310009B201602500812F03D1300066
:10327000284948702500802F02D12648C6632500C2
:10328000822F04D1FFF73DFEFEF7D7FF2500002D6A
:10329000D8D00020204D03E00299095C2954401C3D
:1032A0000828F9DB0821280000F0BCFAF7BD2B2F15
:1032B000C8DA2B2EC6DA28460090174D15E0029981
:1032C000095C2954401C0628F9DB06212800FFF779
:1032D000FBFD0400A8712012E8710821280000F00D
:1032E000A1FA0098401CC0B200900098B042A9DA40
:1032F0000A49381880000858002809D00299009A15
:1033000052008918CA791202097A0A4312B202607D
:103310000020D8E7CC0200200C030020C0000020D1
:10332000FF0300006E000000960000002C0100006A
:10333000B004000060090000C012000080250000F9
:10334000004B00000096000000E1000000C20100F8
:10335000008403000008070000100E0010B50121D2
:10336000C802FFF785FD002140480A00028502845B
:103370003F4AC262A02202806822038B1343038368
:10338000038C05241C4304844163038B14021C43F7
:103390000483038C50241C4304848163838B1A436D
:1033A0008283028CA023DB0013430384C163818BDF
:1033B000304A0A438283010D0164702181802E49C5
:1033C0000A88082313430B80018801220A430280E4
:1033D0009020C0050168294A0A40026080218903C3
:1033E00002680A430260426A0B0B13434362244A99
:1033F0001368244C1C40146013688C011C43146037
:10340000536A1943516201681F4B0B400360016806
:1034100080231B030B430360416A20230B43436259
:1034200011681A4B0B4013608021890513680B4308
:103430001360536A0C091C4354620368144C1C400B
:10344000046003680C0B1C430460436A02241C43A1
:1034500044621068800080081060106880231B069A
:1034600003431360506A0143516210BD002C0140B8
:103470003304000008600000442C0140FFFFCFFF30
:1034800000040048FFFFFFF3FFFFF3FFFFFFFFCF44
:10349000FFFFFCFFF446002804D4494200F013F873
:1034A000404260474042002905D45FD000F00BF84D
:1034B000404249426047494200F005F849426047AE
:1034C00003460B43E6D40022030A8B420BD20309C6
:1034D0008B4219D243088B422ED2411A00D20146A8
:1034E000524110467047FF2209023FD012068B421C
:1034F00005D3121209028B4201D3121209020309E9
:103500008B4219D300E0090AC3098B4201D3CB01D6
:10351000C01A524183098B4201D38B01C01A524118
:1035200043098B4201D34B01C01A524103098B421C
:1035300001D30B01C01A5241C3088B4201D3CB0007
:10354000C01A524183088B4201D38B00C01A5241EA
:1035500043088B4201D34B00C01A5241884200D32A
:10356000401A5241CFD201461046704708B500F0CC
:103570008DFA08BD002800D5404270472048C16838
:10358000090603D51F4901601F49016070471F48A4
:10359000016880220A430260704770B50400B025BC
:1035A0002D03280000F04EF8042810D1174E306883
:1035B0000221014331607460306840210143316071
:1035C000280000F03FF8316802229143316070BD5D
:1035D000F8B507000C00B0252D03280000F032F8E4
:1035E00004280CD10A4E30680121014331603C802F
:1035F000280000F027F83168012291433160F2BDC4
:103600000420024023016745AB89EFCD1020024022
:103610001020024010B4042108000122084B1C684D
:10362000144001D0100008E01A68D20601D502202B
:1036300003E01A68114000D0032010BC704700005E
:103640000C20024010B50400FFF7E4FF02E0FFF792
:10365000E1FF641E012801D1002CF8D1002C00D11B
:10366000052010BD30B400231A00224D03E0A40051
:103670002C5912195B1C9BB21C00062CF7DB1E4B4D
:103680001B68D443A34205D12A4680001058086025
:10369000012000E0002030BC704770B505000C0030
:1036A000FFF76CFF134E3000FFF777FFAD002100EE
:1036B00089B2A819FFF78CFF210CB01C2818FFF75E
:1036C00087FF00200100334603E092009A588918D2
:1036D000401C80B20200062AF7DBCC43210089B2ED
:1036E0000548FFF775FF210C0448FFF771FF002024
:1036F00070BD0000001C0008181C00081A1C0008FF
:103700000121C006C00E81406B480160704710B4B3
:103710008207920FD300FF249C40E2438901C9B283
:10372000994003000BD565481B071B0F083B9B08FE
:103730009B00C01803681A401143016007E060480D
:103740009B089B00C01803681A401143016010BC1D
:103750007047F8B505008024E40101212000FFF73F
:1037600087FB01210846FFF775FB5648FFF75BFB17
:1037700001218804FFF76EFB53480168534A0A4051
:103780000260016862080A430260016A016201681E
:103790004F4A0A4002606600016831430160016AD5
:1037A00001624C4F4C482900FFF78DFEB881002084
:1037B0003860B8607860786806437E60B868C02179
:1037C0000143B960386821030143396078686102B8
:1037D000014379600F2078619020C00501680C22B8
:1037E00091430160016808220A430260016A1022C5
:1037F0000A43026238688421490401433960B86889
:103800000443BC6038680D2101433960802133488E
:1038100000F02EF81B20FFF773FF05211B20FFF798
:1038200076FFF1BD38B505000C0000F017F8002850
:10383000FBD02B48016840220A43026029480168F6
:1038400020220A43026090218161C46145622649B9
:103850000162816901220A43826131BD2348C16945
:10386000002901D1012070470068202108407047DD
:103870001F4A802313605160D0601E48906010681A
:10388000012101431160704710B51B4C20680005F1
:103890000AD51A480168802906D080210068091AD3
:1038A00089B20E48FFF712FC1548606080210B4872
:1038B000FFF7DEFF10BD000000E100E01CED00E0BE
:1038C00000E400E00100001000040048FFCFFFFF0B
:1038D000FF3FFFFF00380140006CDC026801002060
:1038E0002038014004000240283801400000024016
:1038F00030000240243801401C38014034000240AE
:10390000FFFF0000BFF34F8F534854490860BFF3D7
:103910004F8FFEE780B50120FFF746FAA02189030B
:103920000020FFF74DFA0120FFF756FA4C480068D7
:103930008001FBD50220FFF75CFAFFF761FA082847
:10394000FBD10020FFF761FA0020FFF765FA0121A3
:103950000807FFF797FA01218C20C003FFF77AFAD6
:1039600001210846FFF776FA01213E48FFF780FA69
:103970000121C802FFF786FA01210803FFF778FA50
:1039800001BD80B501214804FFF772FA3648374976
:1039900001853221C162018801220A430280416A05
:1039A000C26A521E9142FAD3002141623049028A12
:1039B0000A40028202881140018001BD7047022046
:1039C0002C4908607047704780B572B62A482B4969
:1039D0000860002000F05CF800210120FFF75CFA8D
:1039E000FFF790FF01BD264801680C22914301605A
:1039F000016804220A43026081680C220A43826043
:103A00000168032291430160016801220A430260B8
:103A1000816803220A43826001681A4A0A400260F0
:103A200001688022D2010A4302608168C02212022A
:103A30000A4382600168144A0A40026001688022D9
:103A400052010A4302608168C02292010A438260E7
:103A500080218161704700000400FA050CED00E050
:103A60000010024001020000004401407FBB000042
:103A7000FEFF00007C030020FFFF000080E100E06B
:103A800000140048FF3FFFFFFFCFFFFF7047FEE736
:103A900003490A6803239A431043086070470000F3
:103AA0000000014080B5002007E08100334A8958BA
:103AB000802292058300D150401C3028F5D301218B
:103AC0000846FFF7E9F90320FFF7E2FF01BDF8B56B
:103AD000002080F31088FFF71DFFFEF79BFFFFF724
:103AE00082FF62B6FFF76AFFFFF74BFF244C2068A6
:103AF000032188432060A0680143A1600C25ED43A9
:103B0000206828402060A0680C210143A160E06883
:103B100003218843E0600127E0683843E060E06803
:103B20002840E0600426E0683043E060FFF729FFAA
:103B3000208A0100C907C90F38464840FFF7ECF951
:103B4000206805402560206806432660A0680C2197
:103B50000143A16020680321884320602068074357
:103B60002760A0680143A160FEF724FCFEF7DFFA9E
:103B7000FFF725FF00F006F8FCE700000020000832
:103B800000140048024801490860704700300040B6
:103B9000AAAA000070B40121002313E00468001DEC
:103BA0000C4202D04D466D1E64192360241D121F65
:103BB000042AFAD22500960701D52380AD1C0A40BD
:103BC00000D02B700268001D002AE7D170BC70473E
:103BD00010B5074979441831064C7C44163404E08A
:103BE000081D0A68891888470100A142F8D110BD54
:103BF00008000000140000009DFFFFFFC402000049
:103C0000C00000200000000000F00BF8002801D0E8
:103C1000FFF7DEFF0020C046C046FFF758FF00F068
:103C200002F80120704780B500F002F801BDFEE700
:103C30000746384600F002F8FBE7FEE780B5C046CD
:103C4000C046024A11001820ABBEFBE72600020066
:103C50000148804701480047A53A0008613C000838
:103C6000C046C046C046C046FFF7CEFFFEE7FEE7AF
:103C7000FEE7FEE7FEE7FEE7FEE7FEE7FEE7FEE71C
:103C8000FEE7FEE7FEE7FEE7FEE7FEE7FEE7FEE70C
:103C9000FEE7FEE7FEE7FEE7FEE7FEE7FEE7FEE7FC
:063CA000FEE7FEE7FEE76F
:0400000508003C6152
:00000001FF
