:020000040800F2
:1020000098070020F93C0008373B0008D73C00083F
:1020100000000000000000000000000000000000C0
:10202000000000000000000000000000E33C000889
:102030000000000000000000153D0008173D0008EA
:10204000193D00081B3D00081D3D00081F3D00080C
:10205000213D0008233D0008253D0008273D0008DC
:10206000293D0008792500082B3D00082D3D00087A
:102070002F3D0008313D000825250008333D0008AC
:10208000353D00086F3A0008373D0008393D00082B
:102090003B3D00083D2300083D3D00083F3D000852
:1020A000413D0008433D0008453D00083139000826
:1020B000473D0008493D00084B3D00084D3D0008E4
:1020C0000121C006C00E8140B9480160704710B4BC
:1020D0008207920FD300FF249C40E2438901C9B2DA
:1020E000994003000BD594481B071B0F083B9B0826
:1020F0009B00C01803681A401143016007E0AD4817
:102100009B089B00C01803681A401143016010BC73
:10211000704738B505000C00680000F076FDA41C7F
:1021200021006800401C80B200F06FFD31BD10B589
:10213000B84C21000C310320FFF7EBFF2100091DF3
:102140000420FFF7E6FF210008310520FFF7E1FF3B
:10215000210020310620FFF7DCFF21001831072085
:10216000FFF7D7FF21001C310820FFF7D2FF210025
:1021700048310920FFF7CDFF21004C310A20FFF73D
:10218000C8FF210050310B20FFF7C3FF210054315D
:102190000C20FFF7BEFF210058310D20FFF7B9FFDB
:1021A00021005C310E20FFF7B4FF210060310F20C9
:1021B000FFF7AFFF210064311020FFF7AAFF2100D5
:1021C00068311120FFF7A5FF21006C311220FFF7C5
:1021D000A0FF210070311320FFF79BFF2100743115
:1021E0001420FFF796FF210034311520FFF791FFEF
:1021F000210040311620FFF78CFF21002C311720E1
:10220000FFF787FF210028311820FFF782FF210008
:1022100038311920FFF77DFF0020606110BD38B50F
:1022200004000D0089B2600000F00EFD290C600072
:10223000401C80B200F008FD31BD10B5754CE1685E
:102240000320FFF7ECFF61680420FFF7E8FFA168B7
:102250000520FFF7E4FF216A0620FFF7E0FFA169F0
:102260000720FFF7DCFFE1690820FFF7D8FFA16C2A
:102270000920FFF7D4FFE16C0A20FFF7D0FF216DA2
:102280000B20FFF7CCFF616D0C20FFF7C8FFA16D9D
:102290000D20FFF7C4FFE16D0E20FFF7C0FF216E98
:1022A0000F20FFF7BCFF616E1020FFF7B8FFA16E93
:1022B0001120FFF7B4FFE16E1220FFF7B0FF216F8E
:1022C0001320FFF7ACFF616F1420FFF7A8FF616BCD
:1022D0001520FFF7A4FF216C1620FFF7A0FFE16A8D
:1022E0001720FFF79CFFA16A1820FFF798FFA16B4A
:1022F0001920FFF794FF10BD914870479848704728
:102300009848704780B50121480400F0EBFD8748EC
:10231000954901852821C162012182890A43828170
:1023200002881143018003211520FFF7D0FE1520FC
:10233000FFF7C6FE01BD00001CED00E070B57C4853
:1023400001887C4A0A40028000247B4D200068708E
:10235000286D401C28657A4EF06A696988420ADB5C
:102360002869B16A884206DB306CA969884202DBC1
:10237000286B002801D020206870306CA969884241
:1023800000DA34602869B16A884201DA346006E014
:1023900000F0C3FE002802D0022068702C65706C2B
:1023A000012803DB296D884200D2346070BD000033
:1023B00000E100E000E400E0F8B564255F4E3188FC
:1023C0006D204843290001F033F807005A4C27815B
:1023D00071896D204843290001F02AF8C01B6081F3
:1023E0000C480021016041634164217001F07AF8DA
:1023F0005E4801884904490C0180FFF783FF00F023
:102400000BF802210920FFF762FE0920FFF758FEB2
:10241000F1BD0000680200204A488021C9058160A2
:102420000168802212060A43026001680029FCD478
:102430000021C160C0210904434A116001210268E2
:102440000A430260414A4260414A0262414A1160C5
:10245000414B536018239360404BD360444B13614E
:10246000536819435160016804220A4302607047AF
:10247000F6B5C417CD17060000D576420F0000D57B
:102480007F427801310000F0D3FF202807DB402194
:1024900000917001390000F0CBFF4021081AEDB225
:1024A000002D01D0FF21081AE4B2002C01D07F21B9
:1024B000081AF119019A1160C0B2F6BDFEB50023E9
:1024C0001A000EE094001E4D2D190659AF6CF61B34
:1024D0006D6D6E43F5112D0EAD192D126E463551F1
:1024E000521C032AEEDB18001A00154E07E0940078
:1024F0006D462D593419246E65434019521C032A28
:10250000F5DB1A0007E095006C4664597519ED6E0D
:102510006C431B19521C032AF5DB0A001900FFF754
:10252000A7FFFEBD0020134908807047004401400A
:1025300010440140FEFF000068010020B8F7FF1FB3
:10254000680200200824014008270140010400001F
:102550003D000100040002408205000040240140CB
:1025600078010020A80100207FBB0000442C01401E
:1025700060030020102C0140F0B587B0C34CC44F5D
:102580003868002802D02020207001E0022020704E
:10259000C048012101604168012291434160182136
:1025A000816041680A434260BB48016804220A43D3
:1025B0000260002004AD0FE04100B84A52181388B1
:1025C00096899B19168B9B19928C9A1853109B0F06
:1025D0009A1892106A52401C0628EDDBE9886120A7
:1025E00048430A2100F024FF298980221201891A18
:1025F000CA005118636DA289C82A0DDA5E00F3186B
:1026000066699B1900935B109B0F009E9B199B10A2
:102610006365521CA28100E0C91AA26D80B2101835
:102620002269801AA065C210120F101800112061D3
:10263000E06D09B240186169401AE065C110090FE8
:1026400008180011606168890821615E401A8100E4
:10265000081800010A21615E00F0EAFE1E30A06148
:10266000288860636888A063A888E06303A92000C5
:102670003430FFF723FF0600E670206B0221884309
:1026800020632079311A49B2E0694018E061E26EB6
:1026900009025118226F891AE1668A11520E5118E7
:1026A000C9112167626F511861670A12A271A2797C
:1026B000B21AE28113007F32FF2A02D3C91A61677E
:1026C00001E0C9186167216A102901DB01226271EA
:1026D0000A2901DA002161712671A178491CA170D3
:1026E000A178C906C90E6A46117018D1616A411AEB
:1026F00021626062206C081A2066616E08186066AC
:10270000796A090201290ADB814200DC080060665F
:1027100048420100606E884200DA080060660025C9
:1027200028460190786B002809D0216A002906D03C
:1027300041438802216900F07BFE029001E02846B7
:102740000290786C012808DB216D884205D228466A
:102750003860206B2021014321633868002808D0AD
:10276000022862D010D3042800D1A9E000D282E070
:10277000AFE08248018A4904490C0182284660661C
:10278000A0667869A067A4E07C48216B0029018AD3
:1027900004D1802212020A43028202E04904490C59
:1027A0000182E069616C401AA16E0918A1663A695C
:1027B00012038A4200DC1100A1665142A26E8A42D5
:1027C00000DA0A00A266B968484311467A685143A4
:1027D000C211120E10180012CA12120D511809134C
:1027E0004518A06F002806D0A84200DA0500414233
:1027F0008D4200DA0D006846007800280BD1786918
:10280000002806D0280000F009FF79694018A06769
:1028100001E00020A06702982818019035000128E7
:1028200001DB403D55E0403553E05448216B002921
:10283000018A04D1802212020A43028202E0490482
:10284000490C0182206EF9694843616EBA695143AF
:10285000C211120E10180012CA11120E51180912CC
:1028600040180299401801903500012801DB403DD5
:102870002FE040352DE04148216B0029018A0FD11E
:10288000802212020A4302820DE000BF680100208C
:102890006802002004000240082401406003002078
:1028A0004904490C018235006079002800D0A579DF
:1028B000A06C0190012801DB40350AE0403D08E0B2
:1028C0002E48018A802212020A430282E56CA06C23
:1028D0000190019800F0A2FE0600E06FC100081808
:1028E0000A2100F0A5FD009060690A2100F0A0FD1A
:1028F000010000984018E0673968002908D0F96A9B
:10290000814205DA00203860206B082101432163F1
:102910001B48864200DB461E386B002802D0B042BE
:1029200000DA0600EDB200BF17A128005530C0B292
:102930000A5C724328005538C0B20B5C73430F48E1
:10294000495D7143090A0160190A4160110A8160F9
:10295000A078C006C00E0B4902222378984201DB02
:102960000A6000E00A826278904202DB012008607F
:1029700001E00120088207B0F0BD0000342C0140C6
:1029800001040000181400480000000000000000CE
:102990000000000000000000000000000000000037
:1029A0000000000000000000000000000000000027
:1029B0000000000000000000000000000000000017
:1029C0000000000000000000000000000000000007
:1029D0000000000000000000000000000000040AE9
:1029E00010161D23292F353B41474D53595F656A0A
:1029F00070767B81868B90959A9FA4A9AEB2B6BB68
:102A0000BFC3C7CBCED2D5D9DCDFE2E5E7EAECEF36
:102A1000F1F3F4F6F7F9FAFBFCFDFDFEFEFEFEFE17
:102A2000FEFDFCFCFBFAF8F7F5F4F2F0EEECE9E75A
:102A3000E4E1DEDDE0E3E6E8EBEDEFF1F3F5F6F8F7
:102A4000F9FAFBFCFDFDFEFEFEFEFEFDFDFCFBFAC1
:102A5000F9F8F6F5F3F1EFEDEBE8E6E3E0DDDAD7D0
:102A6000D3D0CCC8C4C0BCB8B4AFAAA6A19C97921E
:102A70008D88827D78726C67615B554F49433D3725
:102A8000312B251F18120C06FEB500273C00002034
:102A9000C04369460881AB253E0000F0C3FD390004
:102AA0006846062302E052008352491C89B20A009C
:102AB000042AF8DB390006E08802AD4BC35A6846A9
:102AC00052008352491C89B20A00042AF4DB380000
:102AD0006A4601E00500401C80B20100042906DAC4
:102AE0004900515A0029F6D1AB2DF3D00126002E12
:102AF00012D1AB2D10D1380001E00500401C80B28E
:102B00000100042908DA6A464900515A994A91425B
:102B1000F4D1AB2DF1D00126002E01D1AB2D0ED179
:102B2000002E01D0050000E03D00280000F0A2F8D2
:102B30000100042902D100F07EFD0420FEBD280022
:102B4000401C2900491C4210920F10188010800070
:102B50000E1AB6B268466900415A002913D0854A58
:102B60009142E8D1824C3946A802001900F084FD58
:102B700001000429E2D1B002001900F062FD010059
:102B80000429DBD1D7E77100405A7A4988429D4F2A
:102B90000CD09D498842CED1B0027549401800F052
:102BA00050FD01000429C6D0FEBD641CA4B2200063
:102BB000402819DAB102954A895AA14203D121006D
:102BC00009B26A461181029909B28842EDD03900F2
:102BD00000F01BF80128E8D03988200000F0A2F8A6
:102BE0000428E2D0C0B2FEBD614CA802001900F07A
:102BF00028FD01000429A1D10021B002001900F034
:102C00003BFD0100042999D195E770B505000C0042
:102C10000126002000F048F8AB2801D1AB2070BDA0
:102C20008102534808187A4A891800E0091F0200F7
:102C3000921C8A4206D20A88AA42F7D1891E0888C5
:102C400020800026300070BD70B505000C0000F03B
:102C5000E9FC2100280000F065F80600802E04D170
:102C60002100280000F088F8060000F0E4FC3000A5
:102C7000C0B270BD70B506000420002401E0641CE1
:102C8000A4B2042C0FDAA00239494518280000F03C
:102C9000D8FC042807D1B442F1D10021280000F06B
:102CA000EBFC0428EBD070BD3CB401000022100006
:102CB00006E083022E4C1B5B6C4645006353401CB0
:102CC0000428F6DB00291CD0012928D110006A460F
:102CD00001E0401C80B204281FDA4100515A00294B
:102CE000F7D10100491C4B109B0F5B189B109B00F8
:102CF000C91A89B24B00D25A1E4B9A4210D1080011
:102D00000EE0100001E0401C80B2042805DA69469C
:102D10004200895A0029F6D102E0AB2000E01046BB
:102D200036BC704770B504000E000120FFF7BCFFF1
:102D3000AB2801D1AB2070BD80020D494518344944
:102D400040180022D24300E02D1D85420ED2296892
:102D50009142F9D13100280000F08EFC042806D100
:102D60002100AD1C280000F087FC70BD802070BDE4
:102D700000700008EEEE0000F8B507000E00002419
:102D80002046FFF791FFAB281CD00200521C2149BE
:102D900053109B0F9B189B109B00D21A9202551840
:102DA0008002401800901C49280000F065FC0100DA
:102DB000042926D131003800FFF7B4FF042820D1C0
:102DC000104E02E0AB20F2BD641CA4B2402C0EDA1F
:102DD000BC42F9D031002000FFF717FF0128F3D0E3
:102DE00031882000FFF79EFF0428EDD0F2BD009847
:102DF00000F027FC0100042903D10021280000F085
:102E00003BFCF2BD94030020FFFF000006700008A9
:102E1000FE73000800700008EEEE0000274900284D
:102E2000086803D0012202430A60704701229043E0
:102E30000860704710B4224A1368224C1C4014608A
:102E4000136801431943116010BC70471B490028E7
:102E5000086804D08022520402430A607047204A66
:102E600002400A60704716490A6803239A431043D8
:102E700008607047124801680C20084070471049EC
:102E80000A68F0239A431043086070470C490A68A7
:102E9000234B13401843086070472249020F012A50
:102EA0000A6803D103239A430A6002E01E4B1340D1
:102EB0000B600A6810430860704700000010024071
:102EC00004100240FF7FC2FF184A0029116802D097
:102ED0000843106070478143116070470000000094
:102EE000FFFFFFFE124A0029116802D0084310605C
:102EF00070478143116070470E4A0029116802D063
:102F00000843106070478143116070470A4A0029E6
:102F1000116802D008431060704781431160704708
:102F2000FFF8FFFF30100240FFFFFCFF14100240CB
:102F3000181002401C1002400C10024030B4020075
:102F40007B48002300E05B1CDBB28B4210D2D45CD8
:102F50006040082401E02800641EE4B2002CF2D096
:102F60000500ADB26D08C007F5D572486840F3E7BB
:102F700080B230BC704780B56F484278C06B0102A8
:102F80001143012000F0DDFB01BD0000F8B5060093
:102F90000127694C38006070FFF7AEF96063FFF7F6
:102FA000ADF92063FFF7ACF9A063380060700A2523
:102FB000E563002E0AD1694600F0A8FB002805D081
:102FC000009860700098000AC0B2E063E06B0D28C2
:102FD00004D26078002801D0F12801DBE563677036
:102FE000E06B0D2800D3E563206B60600100091DD4
:102FF000A16001000831E16001000C312161010094
:103000000C31616101001031A16101001831E161F1
:1030100001001C312162010024316162010028316C
:10302000A16201002C31E162616B444A1160A36B23
:103030001D000C3555601D0008359560D3601D00DE
:103040002D1D15611B1D53610B00343393610B0063
:103050003833D3610B003C3313620B0028335362C7
:103060000B002C3393620B004033D3620B001833F8
:1030700013630B001C3353630B00203393630B006B
:103080001B1DD3630B00083313640B000C33536414
:103090000B00443393640B001033D3640B002433D0
:1030A00013650B00303353650B0014339365002315
:1030B000D365136653669366D366136720305067F3
:1030C00008004830906708004C30D0670800503046
:1030D0008023D050843208005430106008005830EB
:1030E000506008005C30906008006030D0600800DC
:1030F0006430106108006830506108006C309061E5
:1031000008007030D0617431116200BFAFA0E16B74
:103110008900405800F071FBF1BDA74801780029F3
:1031200003D000210170012070470020704700008B
:10313000FFFF000001A00000E0020020C00000200E
:10314000082900D27047F1B500789B4A5278904226
:1031500002D0002800D02DE1009880780702009866
:10316000C07807430098007904020098407904432E
:1031700000984018801E0278407806021643002509
:10318000891EC9B20098FFF7D9FEB04200D011E104
:10319000012630008849087000984078032806D03E
:1031A000062800D18AE0102800D1BBE0F1BD38002C
:1031B00040380C283FD20C2C3DDA804D0846407830
:1031C00028700320687020004000A870002008E0EC
:1031D00000214200AA180B001371090AD170401C8B
:1031E000C0B2A04214DA74493A1892008918FF223A
:1031F000D24389184A68002AEAD0002805D0096815
:10320000914202D11168090CE3E7116889B2E0E745
:103210006400A4B22100C91CC9B22800FFF78EFEC9
:10322000060028193100C170311201712100491DB9
:10323000280000F04BFB2B2F00DBBBE02B2C00DB2E
:10324000B8E05E4D5C48407828700320687020002C
:103250004000A870002008E000214200AA180B00DE
:103260001371090AD170401CC0B2A04212DA544A4C
:103270003918890051180A68002AEDD0002806D0B4
:10328000091F0968914202D11168090CE5E711682C
:1032900089B2E2E76400A4B22100C91CC9B22800C7
:1032A000FFF74CFE060028193100C1703112017180
:1032B000641D2100280000F009FBF1BD4148874250
:1032C00003D1844201D100F0D3FB2A2F08DA3C4A13
:1032D000B8001058002802D0210009B20160350062
:1032E000812F03D12000344948703500802F02D14E
:1032F0003148C4633500822F04D1FFF73CFEFEF74E
:103300009CFF3500002D55D000202C4D03E0009986
:10331000095C2954401C0828F9DB0821280000F02A
:10332000D5FAF1BD2B2F45DA2B2C43DA284602E0E3
:103330001960401CC0B2A04227DA009942008A18E6
:10334000D1790902127A114309B21D4A3B189B0038
:10335000D21813685568AB4208D11D681A4E2E402A
:103360001E601268136819431160E2E70028DFD07D
:10337000151F2D68AB42DBD11D68ADB21D60126810
:103380001368090419431160D3E700200B4D03E0D3
:103390000099095C2954401C0628F9DB0621280005
:1033A000FFF7CCFD0600A8713012E8710821280053
:1033B00000F08CFAF1BD0000E002002020030020A4
:1033C000C0000020FF0300000000FFFF6E000000AF
:1033D000960000002C010000B0040000600900000D
:1033E000C012000080250000004B00000096000085
:1033F00000E1000000C20100008403000008070093
:1034000000100E00F446002804D4494200F013F8DE
:10341000404260474042002905D45FD000F00BF8DD
:10342000404249426047494200F005F8494260473E
:1034300003460B43E6D40022030A8B420BD2030956
:103440008B4219D243088B422ED2411A00D2014638
:10345000524110467047FF2209023FD012068B42AC
:1034600005D3121209028B4201D312120902030979
:103470008B4219D300E0090AC3098B4201D3CB0167
:10348000C01A524183098B4201D38B01C01A5241A9
:1034900043098B4201D34B01C01A524103098B42AD
:1034A00001D30B01C01A5241C3088B4201D3CB0098
:1034B000C01A524183088B4201D38B00C01A52417B
:1034C00043088B4201D34B00C01A5241884200D3BB
:1034D000401A5241CFD201461046704708B500F05D
:1034E00029FB08BD10B50121C802FFF7FBFC002134
:1034F00040480A00028502843F4AC262A02202803C
:103500006822038B13430383038C05241C43048428
:103510004163038B14021C430483038C50241C431B
:1035200004848163838B1A438283028CA023DB0093
:1035300013430384C163818B304A0A438283010DA4
:103540000164702181802E490A88082313430B806F
:10355000018801220A4302809020C0050168294A9F
:103560000A4002608021890302680A430260426ABD
:103570000B0B13434362244A1368244C1C40146011
:1035800013688C011C431460536A1943516201682B
:103590001F4B0B400360016880231B030B43036038
:1035A000416A20230B43436211681A4B0B4013609E
:1035B0008021890513680B431360536A0C091C436F
:1035C00054620368144C1C40046003680C0B1C43D9
:1035D0000460436A02241C4344621068800080082F
:1035E0001060106880231B0603431360506A014378
:1035F000516210BD002C014033040000086000003F
:10360000442C0140FFFFCFFF00040048FFFFFFF301
:10361000FFFFF3FFFFFFFFCFFFFFFCFF002800D5F8
:10362000404270472048C168090603D51F49016020
:103630001F49016070471F48016880220A430260E9
:10364000704770B50400B0252D03280000F04EF837
:10365000042810D1174E3068022101433160746094
:103660003068402101433160280000F03FF83168A4
:1036700002229143316070BDF8B507000C00B025FF
:103680002D03280000F032F804280CD10A4E3068CF
:103690000121014331603C80280000F027F83168A7
:1036A000012291433160F2BD0420024023016745AD
:1036B000AB89EFCD102002401020024010B404214D
:1036C00008000122084B1C68144001D0100008E0DB
:1036D0001A68D20601D5022003E01A68114000D012
:1036E000032010BC704700000C20024010B50400FD
:1036F000FFF7E4FF02E0FFF7E1FF641E012801D1BC
:10370000002CF8D1002C00D1052010BD30B40023CE
:103710001A00224D03E0A4002C5912195B1C9BB225
:103720001C00062CF7DB1E4B1B68D443A34205D1BB
:103730002A46800010580860012000E0002030BCBC
:10374000704770B505000C00FFF76CFF134E30009A
:10375000FFF777FFAD00210089B2A819FFF78CFFB2
:10376000210CB01C2818FFF787FF0020010033460A
:1037700003E092009A588918401C80B20200062A81
:10378000F7DBCC43210089B20548FFF775FF210C18
:103790000448FFF771FF002070BD0000001C000806
:1037A000181C00081A1C00080121C006C00E814028
:1037B0006B480160704710B48207920FD300FF245A
:1037C0009C40E2438901C9B2994003000BD565488A
:1037D0001B071B0F083B9B089B00C01803681A407F
:1037E0001143016007E060489B089B00C018036814
:1037F0001A401143016010BC7047F8B505008024E1
:10380000E40101212000FFF76DFB01210846FFF7CD
:103810005BFB5648FFF741FB01218804FFF754FB8F
:1038200053480168534A0A400260016862080A432B
:103830000260016A016201684F4A0A400260660044
:10384000016831430160016A01624C4F4C48290014
:10385000FFF7F1FDB88100203860B86078607868C3
:1038600006437E60B868C0210143B960386821030F
:103870000143396078686102014379600F20786103
:103880009020C00501680C22914301600168082264
:103890000A430260016A10220A43026238688421E6
:1038A000490401433960B8680443BC6038680D219D
:1038B000014339608021334800F02EF81B20FFF7C8
:1038C00073FF05211B20FFF776FFF1BD38B505001A
:1038D0000C0000F017F80028FBD02B4801684022AC
:1038E0000A4302602948016820220A4302609021AD
:1038F0008161C461456226490162816901220A43EE
:10390000826131BD2348C169002901D1012070477E
:1039100000682021084070471F4A802313605160CF
:10392000D0601E489060106801210143116070470B
:1039300010B51B4C206800050AD51A48016880297B
:1039400006D080210068091A89B20E48FFF7F8FBFB
:103950001548606080210B48FFF7DEFF10BD0000B6
:1039600000E100E01CED00E000E400E001000010D8
:1039700000040048FFCFFFFFFF3FFFFF003801407A
:10398000006CDC02E8010020203801400400024005
:103990002838014000000240300002402438014035
:1039A0001C38014034000240FFFF0000BFF34F8F7E
:1039B000534854490860BFF34F8FFEE780B501209C
:1039C000FFF72CFAA02189030020FFF733FA01202A
:1039D000FFF73CFA4C4800688001FBD50220FFF756
:1039E00042FAFFF747FA0828FBD10020FFF747FA11
:1039F0000020FFF74BFA01210807FFF77DFA0121AC
:103A00008C20C003FFF760FA01210846FFF75CFA3B
:103A100001213E48FFF766FA0121C802FFF76CFA60
:103A200001210803FFF75EFA01BD80B501214804BA
:103A3000FFF758FA3648374901853221C1620188BB
:103A400001220A430280416AC26A521E9142FAD39D
:103A5000002141623049028A0A40028202881140F4
:103A6000018001BD704702202C49086070477047F3
:103A700080B572B62A482B490860002000F05CF837
:103A800000210120FFF742FAFFF790FF01BD264811
:103A900001680C2291430160016804220A4302601C
:103AA00081680C220A43826001680322914301600D
:103AB000016801220A430260816803220A4382608E
:103AC00001681A4A0A40026001688022D2010A4352
:103AD00002608168C02212020A4382600168144AAF
:103AE0000A4002600168802252010A430260816834
:103AF000C02292010A4382608021816170470000E8
:103B00000400FA050CED00E0001002400102000084
:103B1000004401407FBB0000FEFF00009003002036
:103B2000FFFF000080E100E000140048FF3FFFFFBE
:103B3000FFCFFFFF7047FEE703490A6803239A435C
:103B400010430860704700000000014080B500206D
:103B500007E08100334A8958802292058300D150C2
:103B6000401C3028F5D301210846FFF7CFF9032088
:103B7000FFF7E2FF01BDF8B5002080F31088FFF7E2
:103B80001DFFFEF781FFFFF782FF62B6FFF76AFFB6
:103B9000FFF74BFF244C2068032188432060A06876
:103BA0000143A1600C25ED43206828402060A068F7
:103BB0000C210143A160E06803218843E0600127F4
:103BC000E0683843E060E0682840E0600426E06890
:103BD0003043E060FFF729FF208A0100C907C90FC1
:103BE00038464840FFF7D2F9206805402560206834
:103BF00006432660A0680C210143A16020680321D0
:103C000088432060206807432760A0680143A160C3
:103C1000FEF7D2FBFEF78BFAFFF725FF00F006F860
:103C2000FCE7000000200008001400480248014999
:103C30000860704700300040AAAA000070B401215B
:103C4000002313E00468001D0C4202D04D466D1E97
:103C500064192360241D121F042AFAD22500960736
:103C600001D52380AD1C0A4000D02B700268001DD6
:103C7000002AE7D170BC704710B507497944183164
:103C8000064C7C44163404E0081D0A6889188847ED
:103C90000100A142F8D110BD08000000140000008E
:103CA0009DFFFFFFD8020000C000002000000000C0
:103CB00000F00BF8002801D0FFF7DEFF0020C0461F
:103CC000C046FFF758FF00F002F80120704780B5AA
:103CD00000F002F801BDFEE70746384600F002F8A2
:103CE000FBE7FEE780B5C046C046024A1100182037
:103CF000ABBEFBE7260002000148804701480047B1
:103D00004D3B0008093D0008C046C046C046C046BD
:103D1000FFF7CEFFFEE7FEE7FEE7FEE7FEE7FEE782
:103D2000FEE7FEE7FEE7FEE7FEE7FEE7FEE7FEE76B
:103D3000FEE7FEE7FEE7FEE7FEE7FEE7FEE7FEE75B
:0E3D4000FEE7FEE7FEE7FEE7FEE7FEE7FEE732
:0400000508003D09A9
:00000001FF
