:020000040800F2
:1020000068070020193B000857390008F73A000814
:1020100000000000000000000000000000000000C0
:10202000000000000000000000000000033B00086A
:102030000000000000000000353B0008373B0008AE
:10204000393B00083B3B00083D3B00083F3B000894
:10205000413B0008433B0008453B0008473B000864
:10206000493B0008512500084B3B00084D3B000848
:102070004F3B0008513B000801250008533B000876
:10208000553B00088F380008573B0008593B0008B3
:102090005B3B0008392300085D3B00085F3B0008FC
:1020A000613B0008633B0008653B000851370008AE
:1020B000673B0008693B00086B3B00086D3B00086C
:1020C0000121C006C00E8140B8480160704710B4BD
:1020D0008207920FD300FF249C40E2438901C9B2DA
:1020E000994003000BD593481B071B0F083B9B0827
:1020F0009B00C01803681A401143016007E0BA480A
:102100009B089B00C01803681A401143016010BC73
:10211000704738B505000C00680000F0E6FCA41C10
:1021200021006800401C80B200F0DFFC31BD10B51A
:10213000AE4C21000C310320FFF7EBFF2100091DFD
:102140000420FFF7E6FF210008310520FFF7E1FF3B
:10215000210018310620FFF7DCFF21001031072095
:10216000FFF7D7FF210014310820FFF7D2FF21002D
:1021700038310920FFF7CDFF21003C310A20FFF75D
:10218000C8FF210040310B20FFF7C3FF210044317D
:102190000C20FFF7BEFF210048310D20FFF7B9FFEB
:1021A00021004C310E20FFF7B4FF210050310F20E9
:1021B000FFF7AFFF210054311020FFF7AAFF2100E5
:1021C00058311120FFF7A5FF21005C311220FFF7E5
:1021D000A0FF210060311320FFF79BFF2100643135
:1021E0001420FFF796FF210024311520FFF791FFFF
:1021F000210030311620FFF78CFF210020311720FD
:10220000FFF787FF21001C311820FFF782FF2834D9
:1022100021001920FFF77DFF10BD38B504000D0027
:1022200089B2600000F080FC290C6000401C80B284
:1022300000F07AFC31BD10B56C4CE1680320FFF76B
:10224000ECFF61680420FFF7E8FFA1680520FFF7B5
:10225000E4FFA1690620FFF7E0FF21690720FFF7EF
:10226000DCFF61690820FFF7D8FFA16B0920FFF7A9
:10227000D4FFE16B0A20FFF7D0FF216C0B20FFF7A2
:10228000CCFF616C0C20FFF7C8FFA16C0D20FFF79D
:10229000C4FFE16C0E20FFF7C0FF216D0F20FFF798
:1022A000BCFF616D1020FFF7B8FFA16D1120FFF793
:1022B000B4FFE16D1220FFF7B0FF216E1320FFF78E
:1022C000ACFF616E1420FFF7A8FF616A1520FFF7CD
:1022D000A4FF216B1620FFF7A0FF216A1720FFF74C
:1022E0009CFFE1691820FFF798FFA16A1920FFF70A
:1022F00094FF10BD884870478F4870478F487047DB
:1023000080B50121480400F05DFD7F488C490185BE
:102310002821C162012182890A43828102881143F6
:10232000018003211520FFF7D2FE1520FFF7C8FE1C
:1023300001BD00001CED00E070B574480188744ACE
:102340000A4002800024734D20006870686C401CB5
:102350006864714E306AA96888420ADB6868F1696E
:10236000884206DB306BE968884202DB686A002835
:1023700001D020206870306BE968884200DA346050
:102380006868F169884201DA346006E000F037FEDF
:10239000002802D0022068706C64706B012803DB97
:1023A000696C884200D2346070BD000000E100E03A
:1023B00080B50E48002101604162416355480170BB
:1023C00000F05EFF5F4801884904490C0180FFF777
:1023D00097FF00F00DF802210920FFF778FE092091
:1023E000FFF76EFE01BD000000E400E0E801002000
:1023F0004A488021C90581600168802212060A438B
:10240000026001680029FCD40021C16044490A68C7
:1024100080231B0413430B60012102680A430260FE
:10242000404A4260404A0262404A1160404B536059
:10243000182393603F4BD360434B13615368194398
:102440005160016804220A4302607047F6B5C41760
:10245000CD17060000D576420F0000D57F427801E7
:10246000310000F0BFFF202807DB40210091700100
:10247000390000F0B7FF4021081AEDB2002D01D05D
:10248000FF21081AE4B2002C01D07F21081AF119AB
:10249000019A1160C0B2F6BDFEB500231A000EE02D
:1024A00094001D4D2D190659AF6BF61B6D6C6E43D4
:1024B000F5112D0EAD192D126E463551521C032A01
:1024C000EEDB18001A00144E07E094006D462D59FB
:1024D0003419246D65434019521C032AF5DB1A0098
:1024E00007E095006C4664597519ED6D6C431B1936
:1024F000521C032AF5DB0A001900FFF7A7FFFEBDF7
:1025000000201249088070470044014010440140F7
:10251000FEFF000050020020E801002008240140D6
:1025200008270140010400003D00010004000240B2
:102530008205000040240140540200208402002053
:102540007FBB0000442C014030030020102C0140D0
:10255000F0B585B0B84CB9480068002802D02020FA
:10256000207001E002202070B5480121016041681F
:102570000122914341601821816041680A43426011
:10258000B048016804220A430260002002AD0FE057
:102590004100AD4A5218138896899B19168B9B19D6
:1025A000928C9A1853109B0F9A1892106A52401CE2
:1025B0000628EDDBA66CE988612048430A2100F07B
:1025C00011FF00B230186168401AA064C110090FF1
:1025D000081800116060E06CA168401AE064C11046
:1025E000090F08180011A060288998494018410077
:1025F0000818A060964A11886889401A8300181844
:1026000000015289511A00F0EDFE3230E060288856
:10261000A0626888E062A888206301A920002830B1
:10262000FFF73AFF0600676A0220874367623000BF
:10263000E178401A3100E170216940B20818206148
:10264000A178491CA170A178C90609D1A169411AD4
:102650006161A061606B081A2065616D0818606592
:102660000025284600907548406A002808D0616916
:10267000002905D041438802616800F0B3FE00E004
:1026800028466E490968002906D0022942D00CD399
:1026900004297AD064D381E06E49088A4004400C52
:1026A000088228466065A06578E06A49002F0A8A9A
:1026B00004D180231B0213430B8202E05204520C0C
:1026C0000A822169A26B891AA26D5218A265624B17
:1026D0009A4201DB5A1EA265604AA36D934200DA5A
:1026E000A265564A92685143A26D544B5B685A43A7
:1026F000CB111B0E59180912D3121B0D9A18121365
:102700008918081800903500012801DB403D45E09C
:10271000403543E04F49002F0A8A04D180231B0231
:1027200013430B8202E05204520C0A82216D434A89
:1027300052695143626D414B1B695A43CB111B0EC9
:1027400059180912D3111B0E9A1812128918081859
:1027500000903500012801DB403D1FE040351DE0C1
:102760003C49002F088A04D18022120202430A82C7
:1027700002E04004400C08823500E06B0090012824
:1027800001DB40350AE0403D08E03249088A8022FA
:10279000120202430A82256CE06B0090009800F060
:1027A0007BFE0700E06DC10008180A2100F01AFE48
:1027B0000600A0680A2100F015FE01003000401854
:1027C000E0651E490968002906D01C49096A814252
:1027D00002DA0020194908602148874200DB471EC1
:1027E000EDB200BF20A029005531C9B2425C7A4346
:1027F00029005539C9B2435C7B431649405D784393
:10280000000A0860180A4860100A8860A078C006AC
:10281000C00E144902222378984201DB0A6000E0CE
:102820000A826278904202DB0120086001E0012008
:10283000088205B0F0BD000050020020E801002031
:1028400004000240082401403003002000F8FFFF8C
:10285000B8F7FF1F342C0140010010000000F0FF0A
:1028600001040000181400480000000000000000EF
:102870000000000000000000000000000000000058
:102880000000000000000000000000000000000048
:102890000000000000000000000000000000000038
:1028A0000000000000000000000000000000000028
:1028B0000000000000000000000000000000040A0A
:1028C00010161D23292F353B41474D53595F656A2B
:1028D00070767B81868B90959A9FA4A9AEB2B6BB89
:1028E000BFC3C7CBCED2D5D9DCDFE2E5E7EAECEF58
:1028F000F1F3F4F6F7F9FAFBFCFDFDFEFEFEFEFE39
:10290000FEFDFCFCFBFAF8F7F5F4F2F0EEECE9E77B
:10291000E4E1DEDDE0E3E6E8EBEDEFF1F3F5F6F818
:10292000F9FAFBFCFDFDFEFEFEFEFEFDFDFCFBFAE2
:10293000F9F8F6F5F3F1EFEDEBE8E6E3E0DDDAD7F1
:10294000D3D0CCC8C4C0BCB8B4AFAAA6A19C97923F
:102950008D88827D78726C67615B554F49433D3746
:10296000312B251F18120C06FEB500273C00002055
:10297000C04369460881AB253E0000F091FD390057
:102980006846062302E052008352491C89B20A00BD
:10299000042AF8DB390006E08802AD4BC35A6846CA
:1029A00052008352491C89B20A00042AF4DB380021
:1029B0006A4601E00500401C80B20100042906DAE5
:1029C0004900515A0029F6D1AB2DF3D00126002E33
:1029D00012D1AB2D10D1380001E00500401C80B2AF
:1029E0000100042908DA6A464900515A994A91427D
:1029F000F4D1AB2DF1D00126002E01D1AB2D0ED19B
:102A0000002E01D0050000E03D00280000F0A2F8F3
:102A10000100042902D100F04CFD0420FEBD280075
:102A2000401C2900491C4210920F10188010800091
:102A30000E1AB6B268466900415A002913D0854A79
:102A40009142E8D1824C3946A802001900F052FDAB
:102A500001000429E2D1B002001900F030FD0100AC
:102A60000429DBD1D7E77100405A7A4988429D4F4B
:102A70000CD09D498842CED1B0027549401800F073
:102A80001EFD01000429C6D0FEBD641CA4B22000B6
:102A9000402819DAB102954A895AA14203D121008E
:102AA00009B26A461181029909B28842EDD0390013
:102AB00000F01BF80128E8D03988200000F0A2F8C7
:102AC0000428E2D0C0B2FEBD614CA802001900F09B
:102AD000F6FC01000429A1D10021B002001900F088
:102AE00009FD0100042999D195E770B505000C0096
:102AF0000126002000F048F8AB2801D1AB2070BDC2
:102B00008102534808187A4A891800E0091F020018
:102B1000921C8A4206D20A88AA42F7D1891E0888E6
:102B200020800026300070BD70B505000C0000F05C
:102B3000B7FC2100280000F065F80600802E04D1C3
:102B40002100280000F088F8060000F0B2FC3000F8
:102B5000C0B270BD70B506000420002401E0641C02
:102B6000A4B2042C0FDAA00239494518280000F05D
:102B7000A6FC042807D1B442F1D10021280000F0BE
:102B8000B9FC0428EBD070BD3CB401000022100059
:102B900006E083022E4C1B5B6C4645006353401CD1
:102BA0000428F6DB00291CD0012928D110006A4630
:102BB00001E0401C80B204281FDA4100515A00296C
:102BC000F7D10100491C4B109B0F5B189B109B0019
:102BD000C91A89B24B00D25A1E4B9A4210D1080032
:102BE0000EE0100001E0401C80B2042805DA6946BE
:102BF0004200895A0029F6D102E0AB2000E01046DD
:102C000036BC704770B504000E000120FFF7BCFF12
:102C1000AB2801D1AB2070BD80020D494518344965
:102C200040180022D24300E02D1D85420ED22968B3
:102C30009142F9D13100280000F05CFC042806D153
:102C40002100AD1C280000F055FC70BD802070BD37
:102C500000700008EEEE0000F8B507000E0000243A
:102C60002046FFF791FFAB281CD00200521C2149DF
:102C700053109B0F9B189B109B00D21A9202551861
:102C80008002401800901C49280000F033FC01002D
:102C9000042926D131003800FFF7B4FF042820D1E1
:102CA000104E02E0AB20F2BD641CA4B2402C0EDA40
:102CB000BC42F9D031002000FFF717FF0128F3D004
:102CC00031882000FFF79EFF0428EDD0F2BD009868
:102CD00000F0F5FB0100042903D10021280000F0D9
:102CE00009FCF2BD64030020FFFF0000067000082D
:102CF000FE73000800700008EEEE0000274900286F
:102D0000086803D0012202430A6070470122904301
:102D10000860704710B4224A1368224C1C401460AB
:102D2000136801431943116010BC70471B49002808
:102D3000086804D08022520402430A607047204A87
:102D400002400A60704716490A6803239A431043F9
:102D500008607047124801680C200840704710490D
:102D60000A68F0239A431043086070470C490A68C8
:102D7000234B13401843086070472249020F012A71
:102D80000A6803D103239A430A6002E01E4B1340F2
:102D90000B600A6810430860704700000010024092
:102DA00004100240FF7FC2FF184A0029116802D0B8
:102DB00008431060704781431160704700000000B5
:102DC000FFFFFFFE124A0029116802D0084310607D
:102DD00070478143116070470E4A0029116802D084
:102DE0000843106070478143116070470A4A002908
:102DF000116802D00843106070478143116070472A
:102E0000FFF8FFFF30100240FFFFFCFF14100240EC
:102E1000181002401C1002400C10024030B4020096
:102E20007C48002300E05B1CDBB28B4210D2D45CF8
:102E30006040082401E02800641EE4B2002CF2D0B7
:102E40000500ADB26D08C007F5D573486840F3E7DB
:102E500080B230BC704710B5704C61780020FFF72D
:102E600063FE00210120FFF75FFEE16B89B20220C3
:102E7000FFF75AFEE06B010C0320FFF755FE10BD73
:102E8000F8B506000127654C38006070FFF732FA8C
:102E90006063FFF731FA2063FFF730FAA063380070
:102EA00060700A25E563002E0AD1694600F06CFBCC
:102EB000002805D0009860700098000AC0B2E06356
:102EC000E06B0D2804D26078002801D0F12801DBE6
:102ED000E5636770E06B0D2800D3E563206B6060ED
:102EE0000100091DA16001000831E16001000C3101
:102EF000216101000C31616101001031A16101000B
:102F00001831E16101001C3121620100243161624C
:102F100001002831A1622C30E062616BC64801607B
:102F2000A26B13000C334360130008338360C2604C
:102F300013001B1D0361121D42610A0024328261CD
:102F40000A002832C2610A002C3202620A001C32D6
:102F500042620A00203282620A003032C2620A00F3
:102F6000103202630A00143242630A00183282638C
:102F70000A00121DC2630A00083202640A000C3201
:102F800042640A000C3282640A003432C2640022B5
:102F9000026542658265C265026642668266C266F5
:102FA000026742670A00383282670A003C32C26711
:102FB0000A0040328023C25084300A00443202604A
:102FC0000A00483242600A004C3282600A005032E5
:102FD000C2600A00543202610A00583242610A009B
:102FE0005C3282610A006032C2616431016200BFFA
:102FF00095A0E16B8900405800F00FFBF1BD8F48B0
:103000000178002903D000210170012070470020C1
:1030100070470000FFFF000001A00000B002002088
:10302000082900D27047F1B50078844A527890425E
:1030300002D0002800D0FEE00098807807020098B7
:10304000C07807430098007904020098407904434F
:1030500000984018801E027840780602164300252A
:10306000891EC9B20098FFF7D9FEB04200D0E2E055
:10307000012630007149087000984078032806D076
:10308000062800D18AE0102800D1BBE0F1BD38004D
:1030900040380C283FD20C2C3DDA694D0846407868
:1030A00028700320687020004000A870002008E00D
:1030B00000214200AA180B001371090AD170401CAC
:1030C000C0B2A04214DA5D493A1892008918FF2272
:1030D000D24389184A68002AEAD0002805D0096836
:1030E000914202D11168090CE3E7116889B2E0E767
:1030F0006400A4B22100C91CC9B22800FFF78EFEEB
:10310000060028193100C170311201712100491DDA
:10311000280000F0EBFA2B2F00DB8CE02B2C00DBDF
:1031200089E0474D454840782870032068702000AA
:103130004000A870002008E000214200AA180B00FF
:103140001371090AD170401CC0B2A04212DA3A4988
:103150003A18920089180A68002AEDD0002806D093
:10316000091F0968914202D11168090CE5E711684D
:1031700089B2E2E76400A4B22100C91CC9B22800E8
:10318000FFF74CFE060028193100C17031120171A1
:10319000641D2100280000F0A9FAF1BD29488742EA
:1031A00003D1844201D100F073FB2A2F08DA2249AF
:1031B000B8000858002802D0210009B2016035008B
:1031C000812F03D120001D4948703500802F02D186
:1031D0001A48C4633500822F04D1FFF73CFEFFF785
:1031E0002AF83500002D26D00020154D03E0009967
:1031F000095C2954401C0828F9DB0821280000F04C
:1032000075FAF1BD2B2F16DA2B2C14DA284610E0B4
:1032100009493A1892008958002908D0009A4300B9
:10322000D21893791B02D27913431BB20B60401C56
:10323000C0B2A042ECDBF1BDC0000020B002002013
:10324000F0020020FF0300006E0000009600000066
:103250002C010000B004000060090000C012000052
:1032600080250000004B00000096000000E10000F7
:1032700000C20100008403000008070000100E00D7
:1032800010B50121C802FFF79DFD002140480A004A
:10329000028502843F4AC262A02202806822038B18
:1032A00013430383038C05241C4304844163038B71
:1032B00014021C430483038C50241C430484816344
:1032C000838B1A438283028CA023DB001343038485
:1032D000C163818B304A0A438283010D01647021EE
:1032E00081802E490A88082313430B80018801221C
:1032F0000A4302809020C0050168294A0A40026002
:103300008021890302680A430260426A0B0B13435F
:103310004362244A1368244C1C40146013688C01D7
:103320001C431460536A1943516201681F4B0B40E0
:103330000360016880231B030B430360416A202361
:103340000B43436211681A4B0B40136080218905BF
:1033500013680B431360536A0C091C4354620368DF
:10336000144C1C40046003680C0B1C430460436A4B
:1033700002241C43446210688000800810601068BA
:1033800080231B0603431360506A0143516210BD42
:10339000002C01403304000008600000442C014070
:1033A000FFFFCFFF00040048FFFFFFF3FFFFF3FF25
:1033B000FFFFFFCFFFFFFCFFF446002804D4494283
:1033C00000F013F8404260474042002905D45FD026
:1033D00000F00BF8404249426047494200F005F8CE
:1033E0004942604703460B43E6D40022030A8B425E
:1033F0000BD203098B4219D243088B422ED2411AB9
:1034000000D20146524110467047FF2209023FD0C8
:1034100012068B4205D3121209028B4201D31212FB
:10342000090203098B4219D300E0090AC3098B4240
:1034300001D3CB01C01A524183098B4201D38B01C6
:10344000C01A524143098B4201D34B01C01A524169
:1034500003098B4201D30B01C01A5241C3088B42AE
:1034600001D3CB00C01A524183088B4201D38B0099
:10347000C01A524143088B4201D34B00C01A52413B
:10348000884200D3401A5241CFD2014610467047BD
:1034900008B500F05FFA08BD002800D5404270472B
:1034A0002048C168090603D51F4901601F49016012
:1034B00070471F48016880220A430260704770B558
:1034C0000400B0252D03280000F04EF8042810D188
:1034D000174E30680221014331607460306840212A
:1034E00001433160280000F03FF831680222914327
:1034F000316070BDF8B507000C00B0252D03280021
:1035000000F032F804280CD10A4E30680121014342
:1035100031603C80280000F027F831680122914397
:103520003160F2BD0420024023016745AB89EFCD35
:10353000102002401020024010B404210800012293
:10354000084B1C68144001D0100008E01A68D2062D
:1035500001D5022003E01A68114000D0032010BCFE
:10356000704700000C20024010B50400FFF7E4FF94
:1035700002E0FFF7E1FF641E012801D1002CF8D121
:10358000002C00D1052010BD30B400231A000C4DD2
:1035900003E0A4002C5912195B1C9BB21C00062CE2
:1035A000F7DB084B1B68D443A34205D12A468000B1
:1035B00010580860012000E0002030BC704700BFB8
:1035C000001C0008181C00080121C006C00E814024
:1035D0006B480160704710B48207920FD300FF243C
:1035E0009C40E2438901C9B2994003000BD565486C
:1035F0001B071B0F083B9B089B00C01803681A4061
:103600001143016007E060489B089B00C0180368F5
:103610001A401143016010BC7047F8B505008024C2
:10362000E40101212000FFF7CDFB01210846FFF74F
:10363000BBFB5648FFF7A1FB01218804FFF7B4FB51
:1036400053480168534A0A400260016862080A430D
:103650000260016A016201684F4A0A400260660026
:10366000016831430160016A01624C4F4C482900F6
:10367000FFF7BBFEB88100203860B86078607868DA
:1036800006437E60B868C0210143B96038682103F1
:103690000143396078686102014379600F207861E5
:1036A0009020C00501680C22914301600168082246
:1036B0000A430260016A10220A43026238688421C8
:1036C000490401433960B8680443BC6038680D217F
:1036D000014339608021334800F02EF81B20FFF7AA
:1036E00073FF05211B20FFF776FFF1BD38B50500FC
:1036F0000C0000F017F80028FBD02B48016840228E
:103700000A4302602948016820220A43026090218E
:103710008161C461456226490162816901220A43CF
:10372000826131BD2348C169002901D10120704760
:1037300000682021084070471F4A802313605160B1
:10374000D0601E48906010680121014311607047ED
:1037500010B51B4C206800050AD51A48016880295D
:1037600006D080210068091A89B20E48FFF758FC7C
:103770001548606080210B48FFF7DEFF10BD000098
:1037800000E100E01CED00E000E400E001000010BA
:1037900000040048FFCFFFFFFF3FFFFF003801405C
:1037A000006CDC0268010020203801400400024067
:1037B0002838014000000240300002402438014017
:1037C0001C38014034000240FFFF0000BFF34F8F60
:1037D000534854490860BFF34F8FFEE780B501207E
:1037E000FFF78CFAA02189030020FFF793FA01204C
:1037F000FFF79CFA4C4800688001FBD50220FFF7D8
:10380000A2FAFFF7A7FA0828FBD10020FFF7A7FAD2
:103810000020FFF7ABFA01210807FFF7DDFA0121CD
:103820008C20C003FFF7C0FA01210846FFF7BCFA5D
:1038300001213E48FFF7C6FA0121C802FFF7CCFA82
:1038400001210803FFF7BEFA01BD80B5012148043C
:10385000FFF7B8FA3648374901853221C16201883D
:1038600001220A430280416AC26A521E9142FAD37F
:10387000002141623049028A0A40028202881140D6
:10388000018001BD704702202C49086070477047D5
:1038900080B572B62A482B490860002000F05CF819
:1038A00000210120FFF7A2FAFFF790FF01BD264893
:1038B00001680C2291430160016804220A430260FE
:1038C00081680C220A4382600168032291430160EF
:1038D000016801220A430260816803220A43826070
:1038E00001681A4A0A40026001688022D2010A4334
:1038F00002608168C02212020A4382600168144A91
:103900000A4002600168802252010A430260816815
:10391000C02292010A4382608021816170470000C9
:103920000400FA050CED00E0001002400102000066
:10393000004401407FBB0000FEFF00006003002048
:10394000FFFF000080E100E000140048FF3FFFFFA0
:10395000FFCFFFFF7047FEE703490A6803239A433E
:1039600010430860704700000000014080B500204F
:1039700007E08100334A8958802292058300D150A4
:10398000401C3028F5D301210846FFF72FFA032009
:10399000FFF7E2FF01BDF8B5002080F31088FFF7C4
:1039A0001DFFFEF7E1FFFFF782FF62B6FFF76AFF38
:1039B000FFF74BFF244C2068032188432060A06858
:1039C0000143A1600C25ED43206828402060A068D9
:1039D0000C210143A160E06803218843E0600127D6
:1039E000E0683843E060E0682840E0600426E06872
:1039F0003043E060FFF729FF208A0100C907C90FA3
:103A000038464840FFF73CFA2068054025602068AA
:103A100006432660A0680C210143A16020680321B1
:103A200088432060206807432760A0680143A160A5
:103A3000FEF7BEFCFEF77BFBFFF725FF00F006F864
:103A4000FCE700000020000800140048024801497B
:103A50000860704700300040AAAA000070B401213D
:103A6000002313E00468001D0C4202D04D466D1E79
:103A700064192360241D121F042AFAD22500960718
:103A800001D52380AD1C0A4000D02B700268001DB8
:103A9000002AE7D170BC704710B507497944183146
:103AA000064C7C44163404E0081D0A6889188847CF
:103AB0000100A142F8D110BD080000001400000070
:103AC0009DFFFFFFA8020000C000002000000000D2
:103AD00000F00BF8002801D0FFF7DEFF0020C04601
:103AE000C046FFF758FF00F002F80120704780B58C
:103AF00000F002F801BDFEE70746384600F002F884
:103B0000FBE7FEE780B5C046C046024A1100182018
:103B1000ABBEFBE726000200014880470148004792
:103B20006D390008293B0008C046C046C046C04663
:103B3000FFF7CEFFFEE7FEE7FEE7FEE7FEE7FEE764
:103B4000FEE7FEE7FEE7FEE7FEE7FEE7FEE7FEE74D
:103B5000FEE7FEE7FEE7FEE7FEE7FEE7FEE7FEE73D
:0E3B6000FEE7FEE7FEE7FEE7FEE7FEE7FEE714
:0400000508003B298B
:00000001FF
