:020000040800F2
:1000000060060020DD0E00080B0D00080F0D000833
:1000100000000000000000000000000000000000E0
:10002000000000000000000000000000BB0E0008FF
:100030000000000000000000C70E0008F90E0008D4
:10004000FB0E0008FD0E0008FF0E0008010F00085F
:10005000030F0008050F0008070F0008090F00082C
:100060000B0F00080D0F00080F0F0008110F0008FC
:10007000130F0008150F0008170F0008190F0008CC
:100080001B0F0008D70500081D0F00081F0F0008F0
:10009000210F0008D9050008230F0008250F0008CC
:1000A000270F0008290F00082B0F0008DB0B0008A2
:1000B0002D0F00082F0F0008310F0008330F000824
:1000C000BFF34F8F9A48AB490860BFF34F8FFEE7ED
:1000D000A9480178481E8041C00F704770B51400D0
:1000E000012948D1F03838D0401E3DD0001F0CD037
:1000F000401E12D0801E21D0401E15D0001F18D0E7
:10010000401E20D0C01E23D070BD002020700120D2
:10011000010061709849087070BD974840880100DF
:10012000090A2170607070BD00202070202060706E
:1001300070BD022020700020607070BD0020207013
:100140000720607070BD002020701820607070BDA6
:10015000002001002170607070BD87488088010018
:10016000090A2170607070BD8348C0880100090AC7
:100170002170607070BD202911D180225200904200
:100180000DD1002309E05E00A5197C4A921916885A
:10019000360A2E7012886A705B1C202BF3DB212933
:1001A00017D180214900884213D1002009E0430083
:1001B000E118724AD21813881B0A0B7012884A7011
:1001C000401C2028F3DB00F017F8403401122170A6
:1001D000607070BD00200CE04100674AD3889B022C
:1001E000928852189A1880231B05D25A634B5A5290
:1001F000401C2028F0DB7047002108005F4B04E022
:1002000052009A5A801880B2491C89B20A00202AEA
:10021000F6DB704738B5584C2589FFF7EDFF85426E
:1002200011D10025202D12DA68005449095AE288BC
:100230009202A3881818101880221205801800F066
:10024000CBF86D1CEEE7608808210143618031BD69
:1002500010B5F03810D0401E17D0401F5CD0801F62
:100260001BD0401F5BD14648814202D100F08AF882
:1002700055E000F090F852E048003F4CA08080B27A
:10028000FD284CDAFFF7A6FF49E03B4CE180084629
:10029000FD2844DAFFF79EFF41E0012906D035D35F
:1002A000032921D013D304292DD02FE0324CE0882C
:1002B000C11F182906D2800280210905401800F0CC
:1002C00070F82CE0608804210143618027E02A4C0B
:1002D000E088C01F182802D2FFF79CFF1FE060884B
:1002E0002021014361801AE0234C00F0A5F9002889
:1002F00004D000F050F80120607010E060884021C8
:10030000014361800BE0FFF7DBFE08E01A4C6088D8
:1003100080210143618002E00020174948800120CC
:1003200010BD154840787047134948707047000069
:100330000400FA0538B521291AD1002002E00F4B3C
:100340005C52401C410053181C7824025B781C430B
:100350002028F4DB084D2C81FFF74EFFA04201D18D
:10036000012032BD6888102101436980002032BD20
:10037000002032BD0CED00E0400200200002002011
:10038000DA1100002048C168090603D51F49016041
:100390001F49016070471F48016880220A430260BC
:1003A000704770B50400B0252D03280000F04EF80A
:1003B000042810D1174E3068022101433160746067
:1003C0003068402101433160280000F03FF8316877
:1003D00002229143316070BDF8B507000C00B025D2
:1003E0002D03280000F032F804280CD10A4E3068A2
:1003F0000121014331603C80280000F027F831687A
:10040000012291433160F2BD04200240230167457F
:10041000AB89EFCD102002401020024010B404211F
:1004200008000122084B1C68144001D0100008E0AD
:100430001A68D20601D5022003E01A68114000D0E4
:10044000032010BC704700000C20024010B50400CF
:10045000FFF7E4FF02E0FFF7E1FF641E012801D18E
:10046000002CF8D1002C00D1052010BD0121C006C0
:10047000C00E814092480160704710B48207920F0D
:10048000D300FF249C40E2438901C9B29940030094
:100490000BD58C481B071B0F083B9B089B00C01803
:1004A00003681A401143016007E087489B089B00DE
:1004B000C01803681A401143016010BC704780B532
:1004C000012000F025F9A0218903002000F02CF97B
:1004D000012000F035F97D4800688001FBD502203D
:1004E00000F03BF900F040F90828FBD1002000F0B3
:1004F00040F9002000F044F90121080700F076F9E6
:1005000001218C20C00300F059F90121084600F0B8
:1005100055F901216E4800F05FF90121C80200F091
:1005200065F90121080300F057F901BD0020C0431F
:100530006849086000210A00674B1A80674A0B006F
:100540001380138293815162654A116091605160FA
:100550001062644A10609161D162634B1860634815
:1005600001606348016091615162D1611162D162A1
:10057000916311635163704780B50121480400F015
:100580002BF956485B4901856421C1620121018034
:10059000416AC26A521E9142FAD3002141620A00A6
:1005A0000282018001BD80B50121480400F014F9E8
:1005B0004A48504901851421C1620121818101808D
:1005C00003211520FFF759FF1520FFF74FFF01BD4D
:1005D000494948607047704770B548480188484AA3
:1005E0000A400280444E3088401C308080B264282B
:1005F00009D1FFF76DFD002805D07068002802D1F1
:100600000120FFF791FE3F4D012400F04AF9002838
:1006100001D12C6001E02000288230780007000F13
:10062000032800DA0024022600F006F8604001D119
:100630002E6070BD2E8270BD33484178202904D1D0
:100640000178481E8041C00F70470020704780B578
:10065000FFF7F2FF002814D072B62A48012101608A
:1006600002210160FFF762FF002080F3108880F311
:10067000148826484168BFF34F8F006880F30888CC
:10068000884701BD194801680C2291430160016847
:1006900004220A43026081680C220A4382600168D6
:1006A000032291430160012102680A4302608268CB
:1006B0000323134383608161022101857047000099
:1006C00000E100E01CED00E000E400E0001002406A
:1006D0000102000080E100E0002C014000440140E4
:1006E000003801400400024080E200E000140048AD
:1006F000000400487FBB00004C0200201044014071
:10070000FEFF000018140048022000080020000826
:1007100027490028086803D0012202430A60704775
:10072000012290430860704710B4224A1368224C9B
:100730001C401460136801431943116010BC7047DA
:100740001B490028086804D08022520402430A6032
:100750007047204A02400A60704716490A6803231E
:100760009A43104308607047124801680C20084003
:10077000704710490A68F0239A4310430860704795
:100780000C490A681E4B13401843086070471D4906
:10079000020F012A0A6803D103239A430A6002E088
:1007A000194B13400B600A68104308607047000043
:1007B0000010024004100240FF7FC2FF134A0029CC
:1007C000116802D008431060704781431160704780
:1007D00000000000FFFFFFFE0D4A0029116802D053
:1007E000084310607047814311607047094A00292F
:1007F000116802D008431060704781431160704750
:10080000FFF8FFFF30100240FFFFFCFF1410024012
:10081000181002401C10024030B402006748002348
:1008200000E05B1CDBB28B4210D2D45C6040082439
:1008300001E02800641EE4B2002CF2D00500ADB245
:100840006D08C007F5D55E486840F3E780B230BC5C
:100850007047000070B582B001265A4C31006170BB
:100860000A25656000280BD16946304600F0CAF8B9
:10087000002805D0009860700098000AC0B260603F
:1008800060680D2804D26078002801D0F12801DBCF
:10089000656066704DA061688900405800F0FBF803
:1008A00073BD48480178002903D000210170012060
:1008B000704700207047F8B5070008297DD33878C5
:1008C000404A5278904201D0002876D1B878000290
:1008D000FA7810436A461080387906027879064320
:1008E0007818801E0278407805021543891EC9B227
:1008F0003800FFF791FFA8425FD10120314908700D
:100900007878032804D0062826D0102838D0F1BDE6
:100910002D4C084640782070032060703000400065
:10092000A0702200D21C310068460088FFF7D6FB79
:100930007600B6B23100C91CC9B22000FFF76CFFC7
:100940000500A0192900C17029120171761D31001E
:10095000200000F010F9F1BD310068460088FFF773
:1009600077FC002829D00020174C02E0395C215484
:10097000401C0828FADB0821200000F0FCF8F1BD3B
:100980003A00D21D310068460088FFF7D3FC0028EA
:1009900013D000200C4C02E0395C2154401C062886
:1009A000FADB06212000FFF737FF0500A0712812AF
:1009B000E0710821200000F0DEF8F1BDFFFF00002B
:1009C00001A0000054020020000000206E00000082
:1009D000960000002C010000B00400006009000037
:1009E000C012000080250000004B000000960000AF
:1009F00000E1000000C201000084030000080700BD
:100A000000100E0030B400231A000C4D03E0A400C7
:100A10002C5912195B1C9BB21C00062CF7DB084BEF
:100A20001B68D443A34205D12A46800010580860B1
:100A3000012000E0002030BC704700BF001C00080F
:100A4000181C00080121C006C00E814070480160DA
:100A5000704710B48207920FD300FF249C40E243FA
:100A60008901C9B2994003000BD56A481B071B0FC7
:100A7000083B9B089B00C01803681A4011430160A3
:100A800007E065489B089B00C01803681A401143A3
:100A9000016010BC7047F8B505008024E401012115
:100AA0002000FFF799FE01210846FFF787FE5B480B
:100AB000FFF76DFE01218804FFF780FE58480168AA
:100AC000584A0A400260016862080A430260016AEB
:100AD00001620168544A0A400260660001683143BD
:100AE0000160016A0162514F514838625148290042
:100AF00000F0B4F8B88100203860B8607860796898
:100B00000E437E60B968C0220A43BA603968220386
:100B10000A433A60796862020A437A600F21796178
:100B20009021C9050A680C239A430A600A680823C1
:100B300013430B600A6A102313430B623968842243
:100B400052040A433A60B9680C43BC6039680D220C
:100B50000A433A6038490022D2430A608861890D0D
:100B6000364800F02EF81B20FFF76CFF05211B20F4
:100B7000FFF76FFFF1BD38B505000C0000F017F866
:100B80000028FBD02E48016840220A4302602A4810
:100B9000016820220A43026090218161C46145629C
:100BA00028490162816901220A43826131BD2648D8
:100BB000C169002901D10120704700682021084047
:100BC0007047224A802313605160D06020489060B3
:100BD0001068012101431160704738B5802464001A
:100BE0001C4D286800050CD51B480168A14208D09F
:100BF00021000068091A0E48686089B20F48FFF7A3
:100C00005AFE0B48686021000C48FFF7DAFF31BD3F
:100C100000E100E01CED00E000E400E00100001055
:100C200000040048FFCFFFFFFF3FFFFF00380140F7
:100C3000FFFF0000006CDC02040002400001002005
:100C400020380140283801400000024030000240B6
:100C5000243801401C380140340002400022030ABD
:100C60008B420BD203098B4219D243088B422ED2FE
:100C7000411A00D20146524110467047FF22090234
:100C80003FD012068B4205D3121209028B4201D3C8
:100C90001212090203098B4219D300E0090AC309A1
:100CA0008B4201D3CB01C01A524183098B4201D33D
:100CB0008B01C01A524143098B4201D34B01C01A28
:100CC000524103098B4201D30B01C01A5241C308A0
:100CD0008B4201D3CB00C01A524183088B4201D30F
:100CE0008B00C01A524143088B4201D34B00C01AFB
:100CF0005241884200D3401A5241CFD20146104699
:100D0000704708B500F002F808BDFEE77047FEE73F
:100D10007047F8B572B6FFF7D2FBFFF7B3FCFFF7E9
:100D20002BFC2F4C2068032188432060A0680143DE
:100D3000A1600C25ED43206828402060A0680C21AC
:100D40000143A160E06803218843E0600127E06877
:100D50003843E060E0682840E0600426E068304303
:100D6000E060FFF709FC208A0100C907C90F384677
:100D70004840FFF76FFD208A0100C907C90F3846B8
:100D80004840FFF725FC20680540256020680643A1
:100D90002660A0680C210143A160206803218843DC
:100DA0002060206807432760A0680143A160FFF727
:100DB000FAFB62B60B4800F017F8062000F017F8AF
:100DC000402000F017F800F018F800F01AF800F0D2
:100DD00014F8FFF7A6FA0028F9D0FFF738FCF6E779
:100DE000001400485555000008490860704708493C
:100DF0000860704707490860704707480349086062
:100E00007047064801490860704700000030004004
:100E10000430004008300040AAAA0000CCCC0000FA
:100E200070B40121002313E00468001D0C4202D0BD
:100E30004D466D1E64192360241D121F042AFAD228
:100E40002500960701D52380AD1C0A4000D02B70E9
:100E50000268001D002AE7D170BC704710B5074931
:100E600079441831064C7C44163404E0081D0A68A5
:100E7000891888470100A142F8D110BD0800000080
:100E8000140000009DFFFFFF5C0200000000002036
:100E90000000000000F00BF8002801D0FFF7DEFF93
:100EA0000020C046C046FFF734FF00F002F80120E2
:100EB000704780B500F002F801BDFEE707463846EE
:100EC00000F002F8FBE7FEE780B5C046C046024AE4
:100ED00011001820ABBEFBE7260002000148804746
:100EE00001480047110D0008ED0E0008C046C0463D
:100EF000C046C046FFF7CEFFFEE7FEE7FEE7FEE78F
:100F0000FEE7FEE7FEE7FEE7FEE7FEE7FEE7FEE7B9
:100F1000FEE7FEE7FEE7FEE7FEE7FEE7FEE7FEE7A9
:100F2000FEE7FEE7FEE7FEE7FEE7FEE7FEE7FEE799
:040F3000FEE7FEE7F3
:0400000508000EEDF4
:00000001FF
