:020000040800F2
:1000000000050020BD0E0008F30C0008F70C0008E6
:1000100000000000000000000000000000000000E0
:100020000000000000000000000000009B0E00081F
:100030000000000000000000A70E0008D90E000814
:10004000DB0E0008DD0E0008DF0E0008E10E0008E0
:10005000E30E0008E50E0008E70E0008E90E0008B0
:10006000EB0E0008ED0E0008EF0E0008F10E000880
:10007000F30E0008F50E0008F70E0008F90E000850
:10008000FB0E0008C9050008FD0E0008FF0E000861
:10009000010F0008CB050008030F0008050F00083A
:1000A000070F0008090F00080B0F0008C70B000816
:1000B0000D0F00080F0F0008110F0008130F0008A4
:1000C000BFF34F8FA748A8490860BFF34F8FFEE7E3
:1000D000A6480178481E8041C00F704770B51400D3
:1000E000012948D1F03838D0401E3DD0001F0CD037
:1000F000401E12D0801E21D0401E15D0001F18D0E7
:10010000401E20D0C01E23D070BD002020700120D2
:10011000010061709549087070BD944A50880100D3
:10012000090A2170607070BD00202070102060707E
:1001300070BD022020700020607070BD0020207013
:100140000720607070BD002020701820607070BDA6
:10015000002001002170607070BD844A9088010009
:10016000090A2170607070BD804AD0880100090AB8
:100170002170607070BD102911D180225200904210
:100180000DD1002309E05E00A519784A92199689DD
:10019000360A2E7092896A705B1C102BF3DB1129D2
:1001A00018D180214900884214D1002009E0430081
:1001B000E1186E4AD21893891B0A0B7092894A7013
:1001C000401C1028F3DB00F01AF801122022A15481
:1001D0002134207070BD10B40020644A0BE041004F
:1001E000D3889B02948864181B19802424051B5B08
:1001F00051188B81401C1028F1DB10BC7047002186
:1002000008005A4B05E052009A189289801880B273
:10021000491C89B20A00102AF5DB704738B5534CE7
:100220002589FFF7ECFF854211D10025102D12DA48
:10023000680021188989E2889202A388181810188A
:1002400080221205801800F0BFF86D1CEEE7608870
:1002500008210143618031BD10B5F03810D0401E37
:1002600017D0401F5CD0801F1BD0401F5BD140487F
:10027000814202D100F07EF855E000F084F852E0AF
:1002800048003A4CA08080B2FD284CDAFFF7A3FF6B
:1002900049E0364CE1800846FD2844DAFFF79BFF31
:1002A00041E0012906D035D3032921D013D30429F5
:1002B0002DD02FE02D4CE088C11F182906D28002D6
:1002C00080210905401800F064F82CE060880421C2
:1002D0000143618027E0254CE088C01F182802D226
:1002E000FFF79CFF1FE060882021014361801AE036
:1002F0001E4C00F097F9002804D000F044F80120CB
:10030000607010E060884021014361800BE0FFF7DE
:10031000D7FE08E0154C608880210143618002E02F
:10032000002012494880012010BD104840787047D5
:100330000E494870704710B4112910D1002002E016
:10034000C9188C81401C4300D1180C7824024978CC
:100350000C4306491028F3DB0C81012000E000204B
:1003600010BC70470400FA050CED00E0C00000204E
:10037000DA1100002048C168090603D51F49016051
:100380001F49016070471F48016880220A430260CC
:10039000704770B50400B0252D03280000F04EF81A
:1003A000042810D1174E3068022101433160746077
:1003B0003068402101433160280000F03FF8316887
:1003C00002229143316070BDF8B507000C00B025E2
:1003D0002D03280000F032F804280CD10A4E3068B2
:1003E0000121014331603C80280000F027F831688A
:1003F000012291433160F2BD042002402301674590
:10040000AB89EFCD102002401020024010B404212F
:1004100008000122084B1C68144001D0100008E0BD
:100420001A68D20601D5022003E01A68114000D0F4
:10043000032010BC704700000C20024010B50400DF
:10044000FFF7E4FF02E0FFF7E1FF641E012801D19E
:10045000002CF8D1002C00D1052010BD0121C006D0
:10046000C00E814091480160704710B48207920F1E
:10047000D300FF249C40E2438901C9B299400300A4
:100480000BD58B481B071B0F083B9B089B00C01814
:1004900003681A401143016007E086489B089B00EF
:1004A000C01803681A401143016010BC704780B542
:1004B000012000F025F9A0218903002000F02CF98B
:1004C000012000F035F97C4800688001FBD502204E
:1004D00000F03BF900F040F90828FBD1002000F0C3
:1004E00040F9002000F044F90121080700F076F9F6
:1004F00001218C20C00300F059F90121084600F0C9
:1005000055F901216D4800F05FF90121C80200F0A2
:1005100065F90121080300F057F901BD0020C0432F
:100520006749086000210A00664B1A80664A0B0082
:100530001380138293815162644A1160916051600B
:100540001062634A10609161D162624B1860624828
:1005500001606248016091615162D1611162D162B2
:10056000916311635163704780B50121480400F025
:100570002BF955485A4901856421C1620121018046
:10058000416AC26A521E9142FAD3002141620A00B6
:100590000282018001BD80B50121480400F014F9F8
:1005A00049484F4901851421C1620121818101809F
:1005B00003211520FFF759FF1520FFF74FFF01BD5D
:1005C0000220484908607047704770B54648018866
:1005D000464A0A400280464E3088401C308080B235
:1005E000642806D1FFF774FD002802D00120FFF730
:1005F0009FFE404D012400F04CF9002801D12C60F1
:1006000001E02000288230784007400F032800DAFC
:100610000024022600F006F8604001D12E6070BD73
:100620002E8270BD34484178202904D10178481EBB
:100630008041C00F70470020704780B5FFF7F2FF80
:10064000002814D072B62B480121016002210160FC
:10065000FFF764FF002080F3108880F31488274898
:100660004168BFF34F8F006880F30888884701BD59
:10067000194801680C2291430160016804220A4371
:10068000026081680C220A43826001680322914360
:100690000160012102680A43026082680323134358
:1006A00083608161022101857047000000E100E064
:1006B0001CED00E000E400E0001002400102000038
:1006C00080E100E0002C014000440140003801407E
:1006D0000400024080E200E00014004800040048EA
:1006E0007FBB0000F400002010440140FEFF00002A
:1006F000F80000201814004802200008002000081C
:1007000027490028086803D0012202430A60704785
:10071000012290430860704710B4224A1368224CAB
:100720001C401460136801431943116010BC7047EA
:100730001B490028086804D08022520402430A6042
:100740007047204A02400A60704716490A6803232E
:100750009A43104308607047124801680C20084013
:10076000704710490A68F0239A43104308607047A5
:100770000C490A681E4B13401843086070471D4916
:10078000020F012A0A6803D103239A430A6002E098
:10079000194B13400B600A68104308607047000053
:1007A0000010024004100240FF7FC2FF134A0029DC
:1007B000116802D008431060704781431160704790
:1007C00000000000FFFFFFFE0D4A0029116802D063
:1007D000084310607047814311607047094A00293F
:1007E000116802D008431060704781431160704760
:1007F000FFF8FFFF30100240FFFFFCFF1410024023
:10080000181002401C10024030B402006648002359
:1008100000E05B1CDBB28B4210D2D45C6040082449
:1008200001E02800641EE4B2002CF2D00500ADB255
:100830006D08C007F5D55D486840F3E780B230BC6D
:100840007047000070B582B00126594C31006170CC
:100850000A25656000280BD16946304600F0C8F8CB
:10086000002805D0009860700098000AC0B260604F
:1008700060680D2804D26078002801D0F12801DBDF
:10088000656066704CA061688900405800F0F9F816
:1008900073BD47480178002903D000210170012071
:1008A000704700207047F8B5070008297BD33878D7
:1008B0003F4A5278904201D0002874D1B8780002A3
:1008C000FA7810436A461080387906027879064330
:1008D0007818801E0278407805021543891EC9B237
:1008E0003800FFF791FFA8425DD101203049087020
:1008F0007878032804D0062826D0102838D0F1BDF7
:100900002C4C084640782070032060703000400076
:10091000A0702200D21C310068460088FFF7DEFB81
:100920007600B6B23100C91CC9B22000FFF76CFFD7
:100930000500A0192900C17029120171761D31002E
:10094000200000F00EF9F1BD310068460088FFF785
:1009500083FC002827D00020164C02E0395C21548B
:10096000401C0828FADB0821200000F0FAF8F1BD4D
:100970003A00D21D310068460088FFF7DCFC0020F9
:100980000C4C02E0395C2154401C0628FADB06219D
:100990002000FFF739FF0500A0712812E07108213F
:1009A000200000F0DEF8F1BDFFFF000001A0000014
:1009B000EC000020800000206E0000009600000087
:1009C0002C010000B004000060090000C01200000B
:1009D00080250000004B00000096000000E10000B0
:1009E00000C20100008403000008070000100E0090
:1009F00030B400231A000C4D03E0A4002C59121946
:100A00005B1C9BB21C00062CF7DB084B1B68D44315
:100A1000A34205D12A46800010580860012000E05A
:100A2000002030BC704700BF001C0008181C0008E4
:100A30000121C006C00E81406F480160704710B4AC
:100A40008207920FD300FF249C40E2438901C9B280
:100A5000994003000BD569481B071B0F083B9B08F7
:100A60009B00C01803681A401143016007E0644806
:100A70009B089B00C01803681A401143016010BC1A
:100A80007047F8B505008024E40101212000FFF73C
:100A90009BFE01210846FFF789FE5A48FFF76FFECB
:100AA00001218804FFF782FE57480168574A0A402F
:100AB0000260016862080A430260016A016201681B
:100AC000534A0A4002606600016831430160016ACE
:100AD0000162504F504838625048290000F0B2F887
:100AE000B88100203860B860786079680E437E6015
:100AF000B968C0220A43BA60396822030A433A60DF
:100B0000796862020A437A600F2179619021C905F0
:100B10000A680C239A430A600A68082313430B608F
:100B20000A6A102313430B623968842252040A4371
:100B30003A60B9680C43BC6039680D220A433A60D8
:100B400037490022D2430A6088618021354800F08D
:100B50002EF81B20FFF76CFF05211B20FFF76FFF0E
:100B6000F1BD38B505000C0000F017F80028FBD0E7
:100B70002D48016840220A4302602948016820226A
:100B80000A43026090218161C46145622749016284
:100B9000816901220A43826131BD2548C16900296A
:100BA00001D1012070470068202108407047214A88
:100BB000802313605160D0601F489060106801214D
:100BC00001431160704710B51C4C206800050CD51E
:100BD0001B480168802908D080210068091A0E4846
:100BE000606089B20F48FFF75EFE0B4860608021AD
:100BF0000C48FFF7DCFF10BD00E100E01CED00E059
:100C000000E400E00100001000040048FFCFFFFFF7
:100C1000FF3FFFFF00380140FFFF0000006CDC02D7
:100C20000400024000000020203801402838014024
:100C30000000024030000240243801401C380140CE
:100C4000340002400022030A8B420BD203098B427C
:100C500019D243088B422ED2411A00D2014652418A
:100C600010467047FF2209023FD012068B4205D37F
:100C7000121209028B4201D31212090203098B429C
:100C800019D300E0090AC3098B4201D3CB01C01A72
:100C9000524183098B4201D38B01C01A524143094F
:100CA0008B4201D34B01C01A524103098B4201D33D
:100CB0000B01C01A5241C3088B4201D3CB00C01AAA
:100CC000524183088B4201D38B00C01A5241430822
:100CD0008B4201D34B00C01A5241884200D3401AC4
:100CE0005241CFD201461046704708B500F002F8D5
:100CF00008BDFEE77047FEE77047F8B572B6002002
:100D0000C0433049086030490860FFF7D0FBFFF767
:100D1000AFFCFFF729FC2D4C20680321884320609D
:100D2000A0680143A1600C25ED43206828402060A5
:100D3000A0680C210143A160E06803218843E060C2
:100D40000127E0683843E060E0682840E06004265E
:100D5000E0683043E060FFF707FC208A0100C90724
:100D6000C90F38464840FFF76DFD206805402560F3
:100D7000206806432660A0680C210143A16020681A
:100D8000032188432060206807432760A06801434F
:100D9000A160FFF715FCFFF7FEFB62B60C4800F000
:100DA00019F8062000F019F8402000F019F800F0BA
:100DB0001AF800F018F8FFF7B8FA0028F9D0FFF792
:100DC0003CFCF6E780E100E080E200E0001400482F
:100DD000555500000649086070470649086070478D
:100DE00005490860704705480149086070470000E0
:100DF000003000400430004008300040AAAA000043
:100E000070B40121002313E00468001D0C4202D0DD
:100E10004D466D1E64192360241D121F042AFAD248
:100E20002500960701D52380AD1C0A4000D02B7009
:100E30000268001D002AE7D170BC704710B5074951
:100E400079441831064C7C44163404E0081D0A68C5
:100E5000891888470100A142F8D110BD08000000A0
:100E6000140000009DFFFFFFFC00000000000020B8
:100E70000000000000F00BF8002801D0FFF7DEFFB3
:100E80000020C046C046FFF738FF00F002F80120FE
:100E9000704780B500F002F801BDFEE7074638460E
:100EA00000F002F8FBE7FEE780B5C046C046024A04
:100EB00011001820ABBEFBE7260002000148804766
:100EC00001480047F90C0008CD0E0008C046C04696
:100ED000C046C046FFF7CEFFFEE7FEE7FEE7FEE7AF
:100EE000FEE7FEE7FEE7FEE7FEE7FEE7FEE7FEE7DA
:100EF000FEE7FEE7FEE7FEE7FEE7FEE7FEE7FEE7CA
:100F0000FEE7FEE7FEE7FEE7FEE7FEE7FEE7FEE7B9
:040F1000FEE7FEE713
:0400000508000ECD14
:00000001FF
